{
  "contractName": "SoulBoundToken",
  "abi": [
    {
      "inputs": [
        {
          "internalType": "string",
          "name": "name_",
          "type": "string"
        },
        {
          "internalType": "string",
          "name": "symbol_",
          "type": "string"
        }
      ],
      "stateMutability": "nonpayable",
      "type": "constructor"
    },
    {
      "anonymous": false,
      "inputs": [
        {
          "indexed": true,
          "internalType": "address",
          "name": "owner",
          "type": "address"
        },
        {
          "indexed": true,
          "internalType": "address",
          "name": "approved",
          "type": "address"
        },
        {
          "indexed": true,
          "internalType": "uint256",
          "name": "tokenId",
          "type": "uint256"
        }
      ],
      "name": "Approval",
      "type": "event"
    },
    {
      "anonymous": false,
      "inputs": [
        {
          "indexed": true,
          "internalType": "address",
          "name": "owner",
          "type": "address"
        },
        {
          "indexed": true,
          "internalType": "address",
          "name": "operator",
          "type": "address"
        },
        {
          "indexed": false,
          "internalType": "bool",
          "name": "approved",
          "type": "bool"
        }
      ],
      "name": "ApprovalForAll",
      "type": "event"
    },
    {
      "anonymous": false,
      "inputs": [
        {
          "indexed": true,
          "internalType": "address",
          "name": "previousOwner",
          "type": "address"
        },
        {
          "indexed": true,
          "internalType": "address",
          "name": "newOwner",
          "type": "address"
        }
      ],
      "name": "OwnershipTransferred",
      "type": "event"
    },
    {
      "anonymous": false,
      "inputs": [
        {
          "indexed": true,
          "internalType": "address",
          "name": "from",
          "type": "address"
        },
        {
          "indexed": true,
          "internalType": "address",
          "name": "to",
          "type": "address"
        },
        {
          "indexed": true,
          "internalType": "uint256",
          "name": "tokenId",
          "type": "uint256"
        }
      ],
      "name": "Transfer",
      "type": "event"
    },
    {
      "inputs": [
        {
          "internalType": "address",
          "name": "to",
          "type": "address"
        },
        {
          "internalType": "uint256",
          "name": "tokenId",
          "type": "uint256"
        }
      ],
      "name": "approve",
      "outputs": [],
      "stateMutability": "nonpayable",
      "type": "function"
    },
    {
      "inputs": [
        {
          "internalType": "address",
          "name": "owner",
          "type": "address"
        }
      ],
      "name": "balanceOf",
      "outputs": [
        {
          "internalType": "uint256",
          "name": "",
          "type": "uint256"
        }
      ],
      "stateMutability": "view",
      "type": "function",
      "constant": true
    },
    {
      "inputs": [
        {
          "internalType": "uint256",
          "name": "tokenId",
          "type": "uint256"
        }
      ],
      "name": "getApproved",
      "outputs": [
        {
          "internalType": "address",
          "name": "",
          "type": "address"
        }
      ],
      "stateMutability": "view",
      "type": "function",
      "constant": true
    },
    {
      "inputs": [
        {
          "internalType": "address",
          "name": "owner",
          "type": "address"
        },
        {
          "internalType": "address",
          "name": "operator",
          "type": "address"
        }
      ],
      "name": "isApprovedForAll",
      "outputs": [
        {
          "internalType": "bool",
          "name": "",
          "type": "bool"
        }
      ],
      "stateMutability": "view",
      "type": "function",
      "constant": true
    },
    {
      "inputs": [],
      "name": "name",
      "outputs": [
        {
          "internalType": "string",
          "name": "",
          "type": "string"
        }
      ],
      "stateMutability": "view",
      "type": "function",
      "constant": true
    },
    {
      "inputs": [],
      "name": "owner",
      "outputs": [
        {
          "internalType": "address",
          "name": "",
          "type": "address"
        }
      ],
      "stateMutability": "view",
      "type": "function",
      "constant": true
    },
    {
      "inputs": [
        {
          "internalType": "uint256",
          "name": "tokenId",
          "type": "uint256"
        }
      ],
      "name": "ownerOf",
      "outputs": [
        {
          "internalType": "address",
          "name": "",
          "type": "address"
        }
      ],
      "stateMutability": "view",
      "type": "function",
      "constant": true
    },
    {
      "inputs": [],
      "name": "renounceOwnership",
      "outputs": [],
      "stateMutability": "nonpayable",
      "type": "function"
    },
    {
      "inputs": [
        {
          "internalType": "address",
          "name": "from",
          "type": "address"
        },
        {
          "internalType": "address",
          "name": "to",
          "type": "address"
        },
        {
          "internalType": "uint256",
          "name": "tokenId",
          "type": "uint256"
        }
      ],
      "name": "safeTransferFrom",
      "outputs": [],
      "stateMutability": "nonpayable",
      "type": "function"
    },
    {
      "inputs": [
        {
          "internalType": "address",
          "name": "from",
          "type": "address"
        },
        {
          "internalType": "address",
          "name": "to",
          "type": "address"
        },
        {
          "internalType": "uint256",
          "name": "tokenId",
          "type": "uint256"
        },
        {
          "internalType": "bytes",
          "name": "data",
          "type": "bytes"
        }
      ],
      "name": "safeTransferFrom",
      "outputs": [],
      "stateMutability": "nonpayable",
      "type": "function"
    },
    {
      "inputs": [
        {
          "internalType": "address",
          "name": "operator",
          "type": "address"
        },
        {
          "internalType": "bool",
          "name": "approved",
          "type": "bool"
        }
      ],
      "name": "setApprovalForAll",
      "outputs": [],
      "stateMutability": "nonpayable",
      "type": "function"
    },
    {
      "inputs": [
        {
          "internalType": "bytes4",
          "name": "interfaceId",
          "type": "bytes4"
        }
      ],
      "name": "supportsInterface",
      "outputs": [
        {
          "internalType": "bool",
          "name": "",
          "type": "bool"
        }
      ],
      "stateMutability": "view",
      "type": "function",
      "constant": true
    },
    {
      "inputs": [],
      "name": "symbol",
      "outputs": [
        {
          "internalType": "string",
          "name": "",
          "type": "string"
        }
      ],
      "stateMutability": "view",
      "type": "function",
      "constant": true
    },
    {
      "inputs": [
        {
          "internalType": "address",
          "name": "from",
          "type": "address"
        },
        {
          "internalType": "address",
          "name": "to",
          "type": "address"
        },
        {
          "internalType": "uint256",
          "name": "tokenId",
          "type": "uint256"
        }
      ],
      "name": "transferFrom",
      "outputs": [],
      "stateMutability": "nonpayable",
      "type": "function"
    },
    {
      "inputs": [
        {
          "internalType": "address",
          "name": "newOwner",
          "type": "address"
        }
      ],
      "name": "transferOwnership",
      "outputs": [],
      "stateMutability": "nonpayable",
      "type": "function"
    },
    {
      "inputs": [
        {
          "internalType": "address",
          "name": "to",
          "type": "address"
        },
        {
          "internalType": "string",
          "name": "uri",
          "type": "string"
        }
      ],
      "name": "safeMint",
      "outputs": [],
      "stateMutability": "nonpayable",
      "type": "function"
    },
    {
      "inputs": [
        {
          "internalType": "uint256",
          "name": "tokenId",
          "type": "uint256"
        }
      ],
      "name": "tokenURI",
      "outputs": [
        {
          "internalType": "string",
          "name": "",
          "type": "string"
        }
      ],
      "stateMutability": "view",
      "type": "function",
      "constant": true
    }
  ],
  "bytecode": "0x60806040523480156200001157600080fd5b50604051620035b1380380620035b18339818101604052810190620000379190620002e8565b818181600090816200004a9190620005b8565b5080600190816200005c9190620005b8565b5050506200007f620000736200008760201b60201c565b6200008f60201b60201c565b50506200069f565b600033905090565b6000600760009054906101000a900473ffffffffffffffffffffffffffffffffffffffff16905081600760006101000a81548173ffffffffffffffffffffffffffffffffffffffff021916908373ffffffffffffffffffffffffffffffffffffffff1602179055508173ffffffffffffffffffffffffffffffffffffffff168173ffffffffffffffffffffffffffffffffffffffff167f8be0079c531659141344cd1fd0a4f28419497f9722a3daafe3b4186f6b6457e060405160405180910390a35050565b6000604051905090565b600080fd5b600080fd5b600080fd5b600080fd5b6000601f19601f8301169050919050565b7f4e487b7100000000000000000000000000000000000000000000000000000000600052604160045260246000fd5b620001be8262000173565b810181811067ffffffffffffffff82111715620001e057620001df62000184565b5b80604052505050565b6000620001f562000155565b9050620002038282620001b3565b919050565b600067ffffffffffffffff82111562000226576200022562000184565b5b620002318262000173565b9050602081019050919050565b60005b838110156200025e57808201518184015260208101905062000241565b60008484015250505050565b6000620002816200027b8462000208565b620001e9565b905082815260208101848484011115620002a0576200029f6200016e565b5b620002ad8482856200023e565b509392505050565b600082601f830112620002cd57620002cc62000169565b5b8151620002df8482602086016200026a565b91505092915050565b600080604083850312156200030257620003016200015f565b5b600083015167ffffffffffffffff81111562000323576200032262000164565b5b6200033185828601620002b5565b925050602083015167ffffffffffffffff81111562000355576200035462000164565b5b6200036385828601620002b5565b9150509250929050565b600081519050919050565b7f4e487b7100000000000000000000000000000000000000000000000000000000600052602260045260246000fd5b60006002820490506001821680620003c057607f821691505b602082108103620003d657620003d562000378565b5b50919050565b60008190508160005260206000209050919050565b60006020601f8301049050919050565b600082821b905092915050565b600060088302620004407fffffffffffffffffffffffffffffffffffffffffffffffffffffffffffffffff8262000401565b6200044c868362000401565b95508019841693508086168417925050509392505050565b6000819050919050565b6000819050919050565b600062000499620004936200048d8462000464565b6200046e565b62000464565b9050919050565b6000819050919050565b620004b58362000478565b620004cd620004c482620004a0565b8484546200040e565b825550505050565b600090565b620004e4620004d5565b620004f1818484620004aa565b505050565b5b8181101562000519576200050d600082620004da565b600181019050620004f7565b5050565b601f82111562000568576200053281620003dc565b6200053d84620003f1565b810160208510156200054d578190505b620005656200055c85620003f1565b830182620004f6565b50505b505050565b600082821c905092915050565b60006200058d600019846008026200056d565b1980831691505092915050565b6000620005a883836200057a565b9150826002028217905092915050565b620005c3826200036d565b67ffffffffffffffff811115620005df57620005de62000184565b5b620005eb8254620003a7565b620005f88282856200051d565b600060209050601f8311600181146200063057600084156200061b578287015190505b6200062785826200059a565b86555062000697565b601f1984166200064086620003dc565b60005b828110156200066a5784890151825560018201915060208501945060208101905062000643565b868310156200068a578489015162000686601f8916826200057a565b8355505b6001600288020188555050505b505050505050565b612f0280620006af6000396000f3fe608060405234801561001057600080fd5b506004361061010b5760003560e01c8063715018a6116100a2578063b88d4fde11610071578063b88d4fde146102a4578063c87b56dd146102c0578063d204c45e146102f0578063e985e9c51461030c578063f2fde38b1461033c5761010b565b8063715018a6146102425780638da5cb5b1461024c57806395d89b411461026a578063a22cb465146102885761010b565b806323b872dd116100de57806323b872dd146101aa57806342842e0e146101c65780636352211e146101e257806370a08231146102125761010b565b806301ffc9a71461011057806306fdde0314610140578063081812fc1461015e578063095ea7b31461018e575b600080fd5b61012a60048036038101906101259190611b17565b610358565b6040516101379190611b5f565b60405180910390f35b61014861043a565b6040516101559190611c0a565b60405180910390f35b61017860048036038101906101739190611c62565b6104cc565b6040516101859190611cd0565b60405180910390f35b6101a860048036038101906101a39190611d17565b610512565b005b6101c460048036038101906101bf9190611d57565b610629565b005b6101e060048036038101906101db9190611d57565b610689565b005b6101fc60048036038101906101f79190611c62565b6106a9565b6040516102099190611cd0565b60405180910390f35b61022c60048036038101906102279190611daa565b61075a565b6040516102399190611de6565b60405180910390f35b61024a610811565b005b610254610825565b6040516102619190611cd0565b60405180910390f35b61027261084f565b60405161027f9190611c0a565b60405180910390f35b6102a2600480360381019061029d9190611e2d565b6108e1565b005b6102be60048036038101906102b99190611fa2565b6108f7565b005b6102da60048036038101906102d59190611c62565b610959565b6040516102e79190611c0a565b60405180910390f35b61030a600480360381019061030591906120c6565b61096b565b005b61032660048036038101906103219190612122565b6109a4565b6040516103339190611b5f565b60405180910390f35b61035660048036038101906103519190611daa565b610a38565b005b60007f80ac58cd000000000000000000000000000000000000000000000000000000007bffffffffffffffffffffffffffffffffffffffffffffffffffffffff1916827bffffffffffffffffffffffffffffffffffffffffffffffffffffffff1916148061042357507f5b5e139f000000000000000000000000000000000000000000000000000000007bffffffffffffffffffffffffffffffffffffffffffffffffffffffff1916827bffffffffffffffffffffffffffffffffffffffffffffffffffffffff1916145b80610433575061043282610abb565b5b9050919050565b60606000805461044990612191565b80601f016020809104026020016040519081016040528092919081815260200182805461047590612191565b80156104c25780601f10610497576101008083540402835291602001916104c2565b820191906000526020600020905b8154815290600101906020018083116104a557829003601f168201915b5050505050905090565b60006104d782610b25565b6004600083815260200190815260200160002060009054906101000a900473ffffffffffffffffffffffffffffffffffffffff169050919050565b600061051d826106a9565b90508073ffffffffffffffffffffffffffffffffffffffff168373ffffffffffffffffffffffffffffffffffffffff160361058d576040517f08c379a000000000000000000000000000000000000000000000000000000000815260040161058490612234565b60405180910390fd5b8073ffffffffffffffffffffffffffffffffffffffff166105ac610b70565b73ffffffffffffffffffffffffffffffffffffffff1614806105db57506105da816105d5610b70565b6109a4565b5b61061a576040517f08c379a0000000000000000000000000000000000000000000000000000000008152600401610611906122c6565b60405180910390fd5b6106248383610b78565b505050565b61063a610634610b70565b82610c31565b610679576040517f08c379a000000000000000000000000000000000000000000000000000000000815260040161067090612358565b60405180910390fd5b610684838383610cc6565b505050565b6106a4838383604051806020016040528060008152506108f7565b505050565b6000806002600084815260200190815260200160002060009054906101000a900473ffffffffffffffffffffffffffffffffffffffff169050600073ffffffffffffffffffffffffffffffffffffffff168173ffffffffffffffffffffffffffffffffffffffff1603610751576040517f08c379a0000000000000000000000000000000000000000000000000000000008152600401610748906123c4565b60405180910390fd5b80915050919050565b60008073ffffffffffffffffffffffffffffffffffffffff168273ffffffffffffffffffffffffffffffffffffffff16036107ca576040517f08c379a00000000000000000000000000000000000000000000000000000000081526004016107c190612456565b60405180910390fd5b600360008373ffffffffffffffffffffffffffffffffffffffff1673ffffffffffffffffffffffffffffffffffffffff168152602001908152602001600020549050919050565b610819610f2c565b6108236000610faa565b565b6000600760009054906101000a900473ffffffffffffffffffffffffffffffffffffffff16905090565b60606001805461085e90612191565b80601f016020809104026020016040519081016040528092919081815260200182805461088a90612191565b80156108d75780601f106108ac576101008083540402835291602001916108d7565b820191906000526020600020905b8154815290600101906020018083116108ba57829003601f168201915b5050505050905090565b6108f36108ec610b70565b8383611070565b5050565b610908610902610b70565b83610c31565b610947576040517f08c379a000000000000000000000000000000000000000000000000000000000815260040161093e90612358565b60405180910390fd5b610953848484846111dc565b50505050565b606061096482611238565b9050919050565b610973610f2c565b600061097f600861134a565b905061098b6008611358565b610995838261136e565b61099f818361138c565b505050565b6000600560008473ffffffffffffffffffffffffffffffffffffffff1673ffffffffffffffffffffffffffffffffffffffff16815260200190815260200160002060008373ffffffffffffffffffffffffffffffffffffffff1673ffffffffffffffffffffffffffffffffffffffff16815260200190815260200160002060009054906101000a900460ff16905092915050565b610a40610f2c565b600073ffffffffffffffffffffffffffffffffffffffff168173ffffffffffffffffffffffffffffffffffffffff1603610aaf576040517f08c379a0000000000000000000000000000000000000000000000000000000008152600401610aa6906124e8565b60405180910390fd5b610ab881610faa565b50565b60007f01ffc9a7000000000000000000000000000000000000000000000000000000007bffffffffffffffffffffffffffffffffffffffffffffffffffffffff1916827bffffffffffffffffffffffffffffffffffffffffffffffffffffffff1916149050919050565b610b2e816113f9565b610b6d576040517f08c379a0000000000000000000000000000000000000000000000000000000008152600401610b64906123c4565b60405180910390fd5b50565b600033905090565b816004600083815260200190815260200160002060006101000a81548173ffffffffffffffffffffffffffffffffffffffff021916908373ffffffffffffffffffffffffffffffffffffffff160217905550808273ffffffffffffffffffffffffffffffffffffffff16610beb836106a9565b73ffffffffffffffffffffffffffffffffffffffff167f8c5be1e5ebec7d5bd14f71427d1e84f3dd0314c0f7b2291e5b200ac8c7c3b92560405160405180910390a45050565b600080610c3d836106a9565b90508073ffffffffffffffffffffffffffffffffffffffff168473ffffffffffffffffffffffffffffffffffffffff161480610c7f5750610c7e81856109a4565b5b80610cbd57508373ffffffffffffffffffffffffffffffffffffffff16610ca5846104cc565b73ffffffffffffffffffffffffffffffffffffffff16145b91505092915050565b8273ffffffffffffffffffffffffffffffffffffffff16610ce6826106a9565b73ffffffffffffffffffffffffffffffffffffffff1614610d3c576040517f08c379a0000000000000000000000000000000000000000000000000000000008152600401610d339061257a565b60405180910390fd5b600073ffffffffffffffffffffffffffffffffffffffff168273ffffffffffffffffffffffffffffffffffffffff1603610dab576040517f08c379a0000000000000000000000000000000000000000000000000000000008152600401610da29061260c565b60405180910390fd5b610db6838383611465565b610dc1600082610b78565b6001600360008573ffffffffffffffffffffffffffffffffffffffff1673ffffffffffffffffffffffffffffffffffffffff1681526020019081526020016000206000828254610e11919061265b565b925050819055506001600360008473ffffffffffffffffffffffffffffffffffffffff1673ffffffffffffffffffffffffffffffffffffffff1681526020019081526020016000206000828254610e68919061268f565b92505081905550816002600083815260200190815260200160002060006101000a81548173ffffffffffffffffffffffffffffffffffffffff021916908373ffffffffffffffffffffffffffffffffffffffff160217905550808273ffffffffffffffffffffffffffffffffffffffff168473ffffffffffffffffffffffffffffffffffffffff167fddf252ad1be2c89b69c2b068fc378daa952ba7f163c4a11628f55a4df523b3ef60405160405180910390a4610f278383836114e4565b505050565b610f34610b70565b73ffffffffffffffffffffffffffffffffffffffff16610f52610825565b73ffffffffffffffffffffffffffffffffffffffff1614610fa8576040517f08c379a0000000000000000000000000000000000000000000000000000000008152600401610f9f9061270f565b60405180910390fd5b565b6000600760009054906101000a900473ffffffffffffffffffffffffffffffffffffffff16905081600760006101000a81548173ffffffffffffffffffffffffffffffffffffffff021916908373ffffffffffffffffffffffffffffffffffffffff1602179055508173ffffffffffffffffffffffffffffffffffffffff168173ffffffffffffffffffffffffffffffffffffffff167f8be0079c531659141344cd1fd0a4f28419497f9722a3daafe3b4186f6b6457e060405160405180910390a35050565b8173ffffffffffffffffffffffffffffffffffffffff168373ffffffffffffffffffffffffffffffffffffffff16036110de576040517f08c379a00000000000000000000000000000000000000000000000000000000081526004016110d59061277b565b60405180910390fd5b80600560008573ffffffffffffffffffffffffffffffffffffffff1673ffffffffffffffffffffffffffffffffffffffff16815260200190815260200160002060008473ffffffffffffffffffffffffffffffffffffffff1673ffffffffffffffffffffffffffffffffffffffff16815260200190815260200160002060006101000a81548160ff0219169083151502179055508173ffffffffffffffffffffffffffffffffffffffff168373ffffffffffffffffffffffffffffffffffffffff167f17307eab39ab6107e8899845ad3d59bd9653f200f220920489ca2b5937696c31836040516111cf9190611b5f565b60405180910390a3505050565b6111e7848484610cc6565b6111f3848484846114e9565b611232576040517f08c379a00000000000000000000000000000000000000000000000000000000081526004016112299061280d565b60405180910390fd5b50505050565b606061124382610b25565b600060066000848152602001908152602001600020805461126390612191565b80601f016020809104026020016040519081016040528092919081815260200182805461128f90612191565b80156112dc5780601f106112b1576101008083540402835291602001916112dc565b820191906000526020600020905b8154815290600101906020018083116112bf57829003601f168201915b5050505050905060006112ed611670565b90506000815103611302578192505050611345565b60008251111561133757808260405160200161131f929190612869565b60405160208183030381529060405292505050611345565b61134084611687565b925050505b919050565b600081600001549050919050565b6001816000016000828254019250508190555050565b6113888282604051806020016040528060008152506116ef565b5050565b611395826113f9565b6113d4576040517f08c379a00000000000000000000000000000000000000000000000000000000081526004016113cb906128ff565b60405180910390fd5b806006600084815260200190815260200160002090816113f49190612acb565b505050565b60008073ffffffffffffffffffffffffffffffffffffffff166002600084815260200190815260200160002060009054906101000a900473ffffffffffffffffffffffffffffffffffffffff1673ffffffffffffffffffffffffffffffffffffffff1614159050919050565b600073ffffffffffffffffffffffffffffffffffffffff168373ffffffffffffffffffffffffffffffffffffffff16146114d4576040517f08c379a00000000000000000000000000000000000000000000000000000000081526004016114cb90612be9565b60405180910390fd5b6114df83838361174a565b505050565b505050565b600061150a8473ffffffffffffffffffffffffffffffffffffffff1661174f565b15611663578373ffffffffffffffffffffffffffffffffffffffff1663150b7a02611533610b70565b8786866040518563ffffffff1660e01b81526004016115559493929190612c5e565b6020604051808303816000875af192505050801561159157506040513d601f19601f8201168201806040525081019061158e9190612cbf565b60015b611613573d80600081146115c1576040519150601f19603f3d011682016040523d82523d6000602084013e6115c6565b606091505b50600081510361160b576040517f08c379a00000000000000000000000000000000000000000000000000000000081526004016116029061280d565b60405180910390fd5b805181602001fd5b63150b7a0260e01b7bffffffffffffffffffffffffffffffffffffffffffffffffffffffff1916817bffffffffffffffffffffffffffffffffffffffffffffffffffffffff191614915050611668565b600190505b949350505050565b606060405180602001604052806000815250905090565b606061169282610b25565b600061169c611670565b905060008151116116bc57604051806020016040528060008152506116e7565b806116c684611772565b6040516020016116d7929190612869565b6040516020818303038152906040525b915050919050565b6116f983836118d2565b61170660008484846114e9565b611745576040517f08c379a000000000000000000000000000000000000000000000000000000000815260040161173c9061280d565b60405180910390fd5b505050565b505050565b6000808273ffffffffffffffffffffffffffffffffffffffff163b119050919050565b6060600082036117b9576040518060400160405280600181526020017f300000000000000000000000000000000000000000000000000000000000000081525090506118cd565b600082905060005b600082146117eb5780806117d490612cec565b915050600a826117e49190612d63565b91506117c1565b60008167ffffffffffffffff81111561180757611806611e77565b5b6040519080825280601f01601f1916602001820160405280156118395781602001600182028036833780820191505090505b5090505b600085146118c657600182611852919061265b565b9150600a856118619190612d94565b603061186d919061268f565b60f81b81838151811061188357611882612dc5565b5b60200101907effffffffffffffffffffffffffffffffffffffffffffffffffffffffffffff1916908160001a905350600a856118bf9190612d63565b945061183d565b8093505050505b919050565b600073ffffffffffffffffffffffffffffffffffffffff168273ffffffffffffffffffffffffffffffffffffffff1603611941576040517f08c379a000000000000000000000000000000000000000000000000000000000815260040161193890612e40565b60405180910390fd5b61194a816113f9565b1561198a576040517f08c379a000000000000000000000000000000000000000000000000000000000815260040161198190612eac565b60405180910390fd5b61199660008383611465565b6001600360008473ffffffffffffffffffffffffffffffffffffffff1673ffffffffffffffffffffffffffffffffffffffff16815260200190815260200160002060008282546119e6919061268f565b92505081905550816002600083815260200190815260200160002060006101000a81548173ffffffffffffffffffffffffffffffffffffffff021916908373ffffffffffffffffffffffffffffffffffffffff160217905550808273ffffffffffffffffffffffffffffffffffffffff16600073ffffffffffffffffffffffffffffffffffffffff167fddf252ad1be2c89b69c2b068fc378daa952ba7f163c4a11628f55a4df523b3ef60405160405180910390a4611aa7600083836114e4565b5050565b6000604051905090565b600080fd5b600080fd5b60007fffffffff0000000000000000000000000000000000000000000000000000000082169050919050565b611af481611abf565b8114611aff57600080fd5b50565b600081359050611b1181611aeb565b92915050565b600060208284031215611b2d57611b2c611ab5565b5b6000611b3b84828501611b02565b91505092915050565b60008115159050919050565b611b5981611b44565b82525050565b6000602082019050611b746000830184611b50565b92915050565b600081519050919050565b600082825260208201905092915050565b60005b83811015611bb4578082015181840152602081019050611b99565b60008484015250505050565b6000601f19601f8301169050919050565b6000611bdc82611b7a565b611be68185611b85565b9350611bf6818560208601611b96565b611bff81611bc0565b840191505092915050565b60006020820190508181036000830152611c248184611bd1565b905092915050565b6000819050919050565b611c3f81611c2c565b8114611c4a57600080fd5b50565b600081359050611c5c81611c36565b92915050565b600060208284031215611c7857611c77611ab5565b5b6000611c8684828501611c4d565b91505092915050565b600073ffffffffffffffffffffffffffffffffffffffff82169050919050565b6000611cba82611c8f565b9050919050565b611cca81611caf565b82525050565b6000602082019050611ce56000830184611cc1565b92915050565b611cf481611caf565b8114611cff57600080fd5b50565b600081359050611d1181611ceb565b92915050565b60008060408385031215611d2e57611d2d611ab5565b5b6000611d3c85828601611d02565b9250506020611d4d85828601611c4d565b9150509250929050565b600080600060608486031215611d7057611d6f611ab5565b5b6000611d7e86828701611d02565b9350506020611d8f86828701611d02565b9250506040611da086828701611c4d565b9150509250925092565b600060208284031215611dc057611dbf611ab5565b5b6000611dce84828501611d02565b91505092915050565b611de081611c2c565b82525050565b6000602082019050611dfb6000830184611dd7565b92915050565b611e0a81611b44565b8114611e1557600080fd5b50565b600081359050611e2781611e01565b92915050565b60008060408385031215611e4457611e43611ab5565b5b6000611e5285828601611d02565b9250506020611e6385828601611e18565b9150509250929050565b600080fd5b600080fd5b7f4e487b7100000000000000000000000000000000000000000000000000000000600052604160045260246000fd5b611eaf82611bc0565b810181811067ffffffffffffffff82111715611ece57611ecd611e77565b5b80604052505050565b6000611ee1611aab565b9050611eed8282611ea6565b919050565b600067ffffffffffffffff821115611f0d57611f0c611e77565b5b611f1682611bc0565b9050602081019050919050565b82818337600083830152505050565b6000611f45611f4084611ef2565b611ed7565b905082815260208101848484011115611f6157611f60611e72565b5b611f6c848285611f23565b509392505050565b600082601f830112611f8957611f88611e6d565b5b8135611f99848260208601611f32565b91505092915050565b60008060008060808587031215611fbc57611fbb611ab5565b5b6000611fca87828801611d02565b9450506020611fdb87828801611d02565b9350506040611fec87828801611c4d565b925050606085013567ffffffffffffffff81111561200d5761200c611aba565b5b61201987828801611f74565b91505092959194509250565b600067ffffffffffffffff8211156120405761203f611e77565b5b61204982611bc0565b9050602081019050919050565b600061206961206484612025565b611ed7565b90508281526020810184848401111561208557612084611e72565b5b612090848285611f23565b509392505050565b600082601f8301126120ad576120ac611e6d565b5b81356120bd848260208601612056565b91505092915050565b600080604083850312156120dd576120dc611ab5565b5b60006120eb85828601611d02565b925050602083013567ffffffffffffffff81111561210c5761210b611aba565b5b61211885828601612098565b9150509250929050565b6000806040838503121561213957612138611ab5565b5b600061214785828601611d02565b925050602061215885828601611d02565b9150509250929050565b7f4e487b7100000000000000000000000000000000000000000000000000000000600052602260045260246000fd5b600060028204905060018216806121a957607f821691505b6020821081036121bc576121bb612162565b5b50919050565b7f4552433732313a20617070726f76616c20746f2063757272656e74206f776e6560008201527f7200000000000000000000000000000000000000000000000000000000000000602082015250565b600061221e602183611b85565b9150612229826121c2565b604082019050919050565b6000602082019050818103600083015261224d81612211565b9050919050565b7f4552433732313a20617070726f76652063616c6c6572206973206e6f7420746f60008201527f6b656e206f776e6572206e6f7220617070726f76656420666f7220616c6c0000602082015250565b60006122b0603e83611b85565b91506122bb82612254565b604082019050919050565b600060208201905081810360008301526122df816122a3565b9050919050565b7f4552433732313a2063616c6c6572206973206e6f7420746f6b656e206f776e6560008201527f72206e6f7220617070726f766564000000000000000000000000000000000000602082015250565b6000612342602e83611b85565b915061234d826122e6565b604082019050919050565b6000602082019050818103600083015261237181612335565b9050919050565b7f4552433732313a20696e76616c696420746f6b656e2049440000000000000000600082015250565b60006123ae601883611b85565b91506123b982612378565b602082019050919050565b600060208201905081810360008301526123dd816123a1565b9050919050565b7f4552433732313a2061646472657373207a65726f206973206e6f74206120766160008201527f6c6964206f776e65720000000000000000000000000000000000000000000000602082015250565b6000612440602983611b85565b915061244b826123e4565b604082019050919050565b6000602082019050818103600083015261246f81612433565b9050919050565b7f4f776e61626c653a206e6577206f776e657220697320746865207a65726f206160008201527f6464726573730000000000000000000000000000000000000000000000000000602082015250565b60006124d2602683611b85565b91506124dd82612476565b604082019050919050565b60006020820190508181036000830152612501816124c5565b9050919050565b7f4552433732313a207472616e736665722066726f6d20696e636f72726563742060008201527f6f776e6572000000000000000000000000000000000000000000000000000000602082015250565b6000612564602583611b85565b915061256f82612508565b604082019050919050565b6000602082019050818103600083015261259381612557565b9050919050565b7f4552433732313a207472616e7366657220746f20746865207a65726f2061646460008201527f7265737300000000000000000000000000000000000000000000000000000000602082015250565b60006125f6602483611b85565b91506126018261259a565b604082019050919050565b60006020820190508181036000830152612625816125e9565b9050919050565b7f4e487b7100000000000000000000000000000000000000000000000000000000600052601160045260246000fd5b600061266682611c2c565b915061267183611c2c565b92508282039050818111156126895761268861262c565b5b92915050565b600061269a82611c2c565b91506126a583611c2c565b92508282019050808211156126bd576126bc61262c565b5b92915050565b7f4f776e61626c653a2063616c6c6572206973206e6f7420746865206f776e6572600082015250565b60006126f9602083611b85565b9150612704826126c3565b602082019050919050565b60006020820190508181036000830152612728816126ec565b9050919050565b7f4552433732313a20617070726f766520746f2063616c6c657200000000000000600082015250565b6000612765601983611b85565b91506127708261272f565b602082019050919050565b6000602082019050818103600083015261279481612758565b9050919050565b7f4552433732313a207472616e7366657220746f206e6f6e20455243373231526560008201527f63656976657220696d706c656d656e7465720000000000000000000000000000602082015250565b60006127f7603283611b85565b91506128028261279b565b604082019050919050565b60006020820190508181036000830152612826816127ea565b9050919050565b600081905092915050565b600061284382611b7a565b61284d818561282d565b935061285d818560208601611b96565b80840191505092915050565b60006128758285612838565b91506128818284612838565b91508190509392505050565b7f45524337323155524953746f726167653a2055524920736574206f66206e6f6e60008201527f6578697374656e7420746f6b656e000000000000000000000000000000000000602082015250565b60006128e9602e83611b85565b91506128f48261288d565b604082019050919050565b60006020820190508181036000830152612918816128dc565b9050919050565b60008190508160005260206000209050919050565b60006020601f8301049050919050565b600082821b905092915050565b6000600883026129817fffffffffffffffffffffffffffffffffffffffffffffffffffffffffffffffff82612944565b61298b8683612944565b95508019841693508086168417925050509392505050565b6000819050919050565b60006129c86129c36129be84611c2c565b6129a3565b611c2c565b9050919050565b6000819050919050565b6129e2836129ad565b6129f66129ee826129cf565b848454612951565b825550505050565b600090565b612a0b6129fe565b612a168184846129d9565b505050565b5b81811015612a3a57612a2f600082612a03565b600181019050612a1c565b5050565b601f821115612a7f57612a508161291f565b612a5984612934565b81016020851015612a68578190505b612a7c612a7485612934565b830182612a1b565b50505b505050565b600082821c905092915050565b6000612aa260001984600802612a84565b1980831691505092915050565b6000612abb8383612a91565b9150826002028217905092915050565b612ad482611b7a565b67ffffffffffffffff811115612aed57612aec611e77565b5b612af78254612191565b612b02828285612a3e565b600060209050601f831160018114612b355760008415612b23578287015190505b612b2d8582612aaf565b865550612b95565b601f198416612b438661291f565b60005b82811015612b6b57848901518255600182019150602085019450602081019050612b46565b86831015612b885784890151612b84601f891682612a91565b8355505b6001600288020188555050505b505050505050565b7f4572723a20746f6b656e207472616e7366657220697320424c4f434b45440000600082015250565b6000612bd3601e83611b85565b9150612bde82612b9d565b602082019050919050565b60006020820190508181036000830152612c0281612bc6565b9050919050565b600081519050919050565b600082825260208201905092915050565b6000612c3082612c09565b612c3a8185612c14565b9350612c4a818560208601611b96565b612c5381611bc0565b840191505092915050565b6000608082019050612c736000830187611cc1565b612c806020830186611cc1565b612c8d6040830185611dd7565b8181036060830152612c9f8184612c25565b905095945050505050565b600081519050612cb981611aeb565b92915050565b600060208284031215612cd557612cd4611ab5565b5b6000612ce384828501612caa565b91505092915050565b6000612cf782611c2c565b91507fffffffffffffffffffffffffffffffffffffffffffffffffffffffffffffffff8203612d2957612d2861262c565b5b600182019050919050565b7f4e487b7100000000000000000000000000000000000000000000000000000000600052601260045260246000fd5b6000612d6e82611c2c565b9150612d7983611c2c565b925082612d8957612d88612d34565b5b828204905092915050565b6000612d9f82611c2c565b9150612daa83611c2c565b925082612dba57612db9612d34565b5b828206905092915050565b7f4e487b7100000000000000000000000000000000000000000000000000000000600052603260045260246000fd5b7f4552433732313a206d696e7420746f20746865207a65726f2061646472657373600082015250565b6000612e2a602083611b85565b9150612e3582612df4565b602082019050919050565b60006020820190508181036000830152612e5981612e1d565b9050919050565b7f4552433732313a20746f6b656e20616c7265616479206d696e74656400000000600082015250565b6000612e96601c83611b85565b9150612ea182612e60565b602082019050919050565b60006020820190508181036000830152612ec581612e89565b905091905056fea26469706673582212204fce4b4a0525747d492fd30ad69e209becdae0dd67d58aa031b55045b773588464736f6c63430008110033",
  "immutableReferences": {},
  "source": "// SPDX-License-Identifier: MIT \npragma solidity ^0.8.4; \n \nimport \"@openzeppelin/contracts/token/ERC721/ERC721.sol\"; \nimport \"@openzeppelin/contracts/token/ERC721/extensions/ERC721URIStorage.sol\"; \nimport \"@openzeppelin/contracts/access/Ownable.sol\"; \nimport \"@openzeppelin/contracts/utils/Counters.sol\"; \n \ncontract SoulBoundToken is ERC721, ERC721URIStorage, Ownable { \n    using Counters for Counters.Counter; \n    \n    Counters.Counter private _tokenIdCounter; \n    string private _baseTokenURI;\n    constructor(string memory name_, string memory symbol_) ERC721(name_,symbol_) {\n    }\n \n    function safeMint(address to, string memory uri) public onlyOwner { \n        uint256 tokenId = _tokenIdCounter.current(); \n        _tokenIdCounter.increment(); \n        _safeMint(to, tokenId); \n        _setTokenURI(tokenId, uri); \n    } \n \n    function _beforeTokenTransfer( \n        address from, \n        address to, \n        uint256 tokenId \n    ) internal virtual override { \n        require(from == address(0), \"Err: token transfer is BLOCKED\"); \n        super._beforeTokenTransfer(from, to, tokenId); \n    } \n    \n \n    // The following functions are overrides required by Solidity. \n\n    \n    function _burn(uint256 tokenId) \n        internal \n        override(ERC721, ERC721URIStorage) \n    { \n        super._burn(tokenId); \n    } \n \n    function tokenURI(uint256 tokenId) \n        public \n        view \n        override(ERC721, ERC721URIStorage) \n        returns (string memory) \n    { \n        return super.tokenURI(tokenId); \n    } \n} \n",
  "sourcePath": "/Users/kalski/github/junction_contracts/contracts/SoulBoundToken.sol",
  "compiler": {
    "name": "solc",
    "version": "0.8.17+commit.8df45f5f.Emscripten.clang"
  },
  "schemaVersion": "3.4.10",
  "updatedAt": "2022-11-05T09:55:06.500Z",
  "networkType": "ethereum",
  "devdoc": {
    "kind": "dev",
    "methods": {
      "approve(address,uint256)": {
        "details": "See {IERC721-approve}."
      },
      "balanceOf(address)": {
        "details": "See {IERC721-balanceOf}."
      },
      "getApproved(uint256)": {
        "details": "See {IERC721-getApproved}."
      },
      "isApprovedForAll(address,address)": {
        "details": "See {IERC721-isApprovedForAll}."
      },
      "name()": {
        "details": "See {IERC721Metadata-name}."
      },
      "owner()": {
        "details": "Returns the address of the current owner."
      },
      "ownerOf(uint256)": {
        "details": "See {IERC721-ownerOf}."
      },
      "renounceOwnership()": {
        "details": "Leaves the contract without owner. It will not be possible to call `onlyOwner` functions anymore. Can only be called by the current owner. NOTE: Renouncing ownership will leave the contract without an owner, thereby removing any functionality that is only available to the owner."
      },
      "safeTransferFrom(address,address,uint256)": {
        "details": "See {IERC721-safeTransferFrom}."
      },
      "safeTransferFrom(address,address,uint256,bytes)": {
        "details": "See {IERC721-safeTransferFrom}."
      },
      "setApprovalForAll(address,bool)": {
        "details": "See {IERC721-setApprovalForAll}."
      },
      "supportsInterface(bytes4)": {
        "details": "See {IERC165-supportsInterface}."
      },
      "symbol()": {
        "details": "See {IERC721Metadata-symbol}."
      },
      "transferFrom(address,address,uint256)": {
        "details": "See {IERC721-transferFrom}."
      },
      "transferOwnership(address)": {
        "details": "Transfers ownership of the contract to a new account (`newOwner`). Can only be called by the current owner."
      }
    },
    "version": 1
  },
  "userdoc": {
    "kind": "user",
    "methods": {},
    "version": 1
  }
}