{
  "address": "0x965E9FA691Ee4e0f097C933b7aaA6E0c7447C095",
  "contractName": "SoulBoundToken",
  "abi": [
    {
      "inputs": [
        {
          "internalType": "string",
          "name": "name_",
          "type": "string"
        },
        {
          "internalType": "string",
          "name": "symbol_",
          "type": "string"
        }
      ],
      "stateMutability": "nonpayable",
      "type": "constructor"
    },
    {
      "anonymous": false,
      "inputs": [
        {
          "indexed": true,
          "internalType": "address",
          "name": "owner",
          "type": "address"
        },
        {
          "indexed": true,
          "internalType": "address",
          "name": "approved",
          "type": "address"
        },
        {
          "indexed": true,
          "internalType": "uint256",
          "name": "tokenId",
          "type": "uint256"
        }
      ],
      "name": "Approval",
      "type": "event"
    },
    {
      "anonymous": false,
      "inputs": [
        {
          "indexed": true,
          "internalType": "address",
          "name": "owner",
          "type": "address"
        },
        {
          "indexed": true,
          "internalType": "address",
          "name": "operator",
          "type": "address"
        },
        {
          "indexed": false,
          "internalType": "bool",
          "name": "approved",
          "type": "bool"
        }
      ],
      "name": "ApprovalForAll",
      "type": "event"
    },
    {
      "anonymous": false,
      "inputs": [
        {
          "indexed": true,
          "internalType": "address",
          "name": "previousOwner",
          "type": "address"
        },
        {
          "indexed": true,
          "internalType": "address",
          "name": "newOwner",
          "type": "address"
        }
      ],
      "name": "OwnershipTransferred",
      "type": "event"
    },
    {
      "anonymous": false,
      "inputs": [
        {
          "indexed": true,
          "internalType": "address",
          "name": "from",
          "type": "address"
        },
        {
          "indexed": true,
          "internalType": "address",
          "name": "to",
          "type": "address"
        },
        {
          "indexed": true,
          "internalType": "uint256",
          "name": "tokenId",
          "type": "uint256"
        }
      ],
      "name": "Transfer",
      "type": "event"
    },
    {
      "inputs": [
        {
          "internalType": "address",
          "name": "to",
          "type": "address"
        },
        {
          "internalType": "uint256",
          "name": "tokenId",
          "type": "uint256"
        }
      ],
      "name": "approve",
      "outputs": [],
      "stateMutability": "nonpayable",
      "type": "function"
    },
    {
      "inputs": [
        {
          "internalType": "address",
          "name": "owner",
          "type": "address"
        }
      ],
      "name": "balanceOf",
      "outputs": [
        {
          "internalType": "uint256",
          "name": "",
          "type": "uint256"
        }
      ],
      "stateMutability": "view",
      "type": "function"
    },
    {
      "inputs": [
        {
          "internalType": "uint256",
          "name": "tokenId",
          "type": "uint256"
        }
      ],
      "name": "getApproved",
      "outputs": [
        {
          "internalType": "address",
          "name": "",
          "type": "address"
        }
      ],
      "stateMutability": "view",
      "type": "function"
    },
    {
      "inputs": [
        {
          "internalType": "address",
          "name": "owner",
          "type": "address"
        },
        {
          "internalType": "address",
          "name": "operator",
          "type": "address"
        }
      ],
      "name": "isApprovedForAll",
      "outputs": [
        {
          "internalType": "bool",
          "name": "",
          "type": "bool"
        }
      ],
      "stateMutability": "view",
      "type": "function"
    },
    {
      "inputs": [],
      "name": "name",
      "outputs": [
        {
          "internalType": "string",
          "name": "",
          "type": "string"
        }
      ],
      "stateMutability": "view",
      "type": "function"
    },
    {
      "inputs": [],
      "name": "owner",
      "outputs": [
        {
          "internalType": "address",
          "name": "",
          "type": "address"
        }
      ],
      "stateMutability": "view",
      "type": "function"
    },
    {
      "inputs": [
        {
          "internalType": "uint256",
          "name": "tokenId",
          "type": "uint256"
        }
      ],
      "name": "ownerOf",
      "outputs": [
        {
          "internalType": "address",
          "name": "",
          "type": "address"
        }
      ],
      "stateMutability": "view",
      "type": "function"
    },
    {
      "inputs": [],
      "name": "renounceOwnership",
      "outputs": [],
      "stateMutability": "nonpayable",
      "type": "function"
    },
    {
      "inputs": [
        {
          "internalType": "address",
          "name": "from",
          "type": "address"
        },
        {
          "internalType": "address",
          "name": "to",
          "type": "address"
        },
        {
          "internalType": "uint256",
          "name": "tokenId",
          "type": "uint256"
        }
      ],
      "name": "safeTransferFrom",
      "outputs": [],
      "stateMutability": "nonpayable",
      "type": "function"
    },
    {
      "inputs": [
        {
          "internalType": "address",
          "name": "from",
          "type": "address"
        },
        {
          "internalType": "address",
          "name": "to",
          "type": "address"
        },
        {
          "internalType": "uint256",
          "name": "tokenId",
          "type": "uint256"
        },
        {
          "internalType": "bytes",
          "name": "data",
          "type": "bytes"
        }
      ],
      "name": "safeTransferFrom",
      "outputs": [],
      "stateMutability": "nonpayable",
      "type": "function"
    },
    {
      "inputs": [
        {
          "internalType": "address",
          "name": "operator",
          "type": "address"
        },
        {
          "internalType": "bool",
          "name": "approved",
          "type": "bool"
        }
      ],
      "name": "setApprovalForAll",
      "outputs": [],
      "stateMutability": "nonpayable",
      "type": "function"
    },
    {
      "inputs": [
        {
          "internalType": "bytes4",
          "name": "interfaceId",
          "type": "bytes4"
        }
      ],
      "name": "supportsInterface",
      "outputs": [
        {
          "internalType": "bool",
          "name": "",
          "type": "bool"
        }
      ],
      "stateMutability": "view",
      "type": "function"
    },
    {
      "inputs": [],
      "name": "symbol",
      "outputs": [
        {
          "internalType": "string",
          "name": "",
          "type": "string"
        }
      ],
      "stateMutability": "view",
      "type": "function"
    },
    {
      "inputs": [
        {
          "internalType": "address",
          "name": "from",
          "type": "address"
        },
        {
          "internalType": "address",
          "name": "to",
          "type": "address"
        },
        {
          "internalType": "uint256",
          "name": "tokenId",
          "type": "uint256"
        }
      ],
      "name": "transferFrom",
      "outputs": [],
      "stateMutability": "nonpayable",
      "type": "function"
    },
    {
      "inputs": [
        {
          "internalType": "address",
          "name": "newOwner",
          "type": "address"
        }
      ],
      "name": "transferOwnership",
      "outputs": [],
      "stateMutability": "nonpayable",
      "type": "function"
    },
    {
      "inputs": [
        {
          "internalType": "address",
          "name": "to",
          "type": "address"
        },
        {
          "internalType": "string",
          "name": "uri",
          "type": "string"
        }
      ],
      "name": "safeMint",
      "outputs": [],
      "stateMutability": "nonpayable",
      "type": "function"
    },
    {
      "inputs": [
        {
          "internalType": "uint256",
          "name": "tokenId",
          "type": "uint256"
        }
      ],
      "name": "revokeCertificate",
      "outputs": [],
      "stateMutability": "nonpayable",
      "type": "function"
    },
    {
      "inputs": [
        {
          "internalType": "uint256",
          "name": "tokenId",
          "type": "uint256"
        }
      ],
      "name": "getTokenIssuer",
      "outputs": [
        {
          "internalType": "address",
          "name": "",
          "type": "address"
        }
      ],
      "stateMutability": "view",
      "type": "function"
    },
    {
      "inputs": [
        {
          "internalType": "address",
          "name": "Issuer",
          "type": "address"
        }
      ],
      "name": "getTokensIssuedByAddress",
      "outputs": [
        {
          "internalType": "uint256[]",
          "name": "",
          "type": "uint256[]"
        }
      ],
      "stateMutability": "view",
      "type": "function"
    },
    {
      "inputs": [
        {
          "internalType": "address",
          "name": "tokenOwner",
          "type": "address"
        }
      ],
      "name": "getURIsFromAddress",
      "outputs": [
        {
          "internalType": "string[]",
          "name": "",
          "type": "string[]"
        }
      ],
      "stateMutability": "view",
      "type": "function"
    },
    {
      "inputs": [
        {
          "internalType": "uint256",
          "name": "tokenId",
          "type": "uint256"
        }
      ],
      "name": "tokenURI",
      "outputs": [
        {
          "internalType": "string",
          "name": "",
          "type": "string"
        }
      ],
      "stateMutability": "view",
      "type": "function"
    }
  ],
  "bytecode": "0x60806040523480156200001157600080fd5b50604051620044f1380380620044f18339818101604052810190620000379190620002e8565b818181600090816200004a9190620005b8565b5080600190816200005c9190620005b8565b5050506200007f620000736200008760201b60201c565b6200008f60201b60201c565b50506200069f565b600033905090565b6000600760009054906101000a900473ffffffffffffffffffffffffffffffffffffffff16905081600760006101000a81548173ffffffffffffffffffffffffffffffffffffffff021916908373ffffffffffffffffffffffffffffffffffffffff1602179055508173ffffffffffffffffffffffffffffffffffffffff168173ffffffffffffffffffffffffffffffffffffffff167f8be0079c531659141344cd1fd0a4f28419497f9722a3daafe3b4186f6b6457e060405160405180910390a35050565b6000604051905090565b600080fd5b600080fd5b600080fd5b600080fd5b6000601f19601f8301169050919050565b7f4e487b7100000000000000000000000000000000000000000000000000000000600052604160045260246000fd5b620001be8262000173565b810181811067ffffffffffffffff82111715620001e057620001df62000184565b5b80604052505050565b6000620001f562000155565b9050620002038282620001b3565b919050565b600067ffffffffffffffff82111562000226576200022562000184565b5b620002318262000173565b9050602081019050919050565b60005b838110156200025e57808201518184015260208101905062000241565b60008484015250505050565b6000620002816200027b8462000208565b620001e9565b905082815260208101848484011115620002a0576200029f6200016e565b5b620002ad8482856200023e565b509392505050565b600082601f830112620002cd57620002cc62000169565b5b8151620002df8482602086016200026a565b91505092915050565b600080604083850312156200030257620003016200015f565b5b600083015167ffffffffffffffff81111562000323576200032262000164565b5b6200033185828601620002b5565b925050602083015167ffffffffffffffff81111562000355576200035462000164565b5b6200036385828601620002b5565b9150509250929050565b600081519050919050565b7f4e487b7100000000000000000000000000000000000000000000000000000000600052602260045260246000fd5b60006002820490506001821680620003c057607f821691505b602082108103620003d657620003d562000378565b5b50919050565b60008190508160005260206000209050919050565b60006020601f8301049050919050565b600082821b905092915050565b600060088302620004407fffffffffffffffffffffffffffffffffffffffffffffffffffffffffffffffff8262000401565b6200044c868362000401565b95508019841693508086168417925050509392505050565b6000819050919050565b6000819050919050565b600062000499620004936200048d8462000464565b6200046e565b62000464565b9050919050565b6000819050919050565b620004b58362000478565b620004cd620004c482620004a0565b8484546200040e565b825550505050565b600090565b620004e4620004d5565b620004f1818484620004aa565b505050565b5b8181101562000519576200050d600082620004da565b600181019050620004f7565b5050565b601f82111562000568576200053281620003dc565b6200053d84620003f1565b810160208510156200054d578190505b620005656200055c85620003f1565b830182620004f6565b50505b505050565b600082821c905092915050565b60006200058d600019846008026200056d565b1980831691505092915050565b6000620005a883836200057a565b9150826002028217905092915050565b620005c3826200036d565b67ffffffffffffffff811115620005df57620005de62000184565b5b620005eb8254620003a7565b620005f88282856200051d565b600060209050601f8311600181146200063057600084156200061b578287015190505b6200062785826200059a565b86555062000697565b601f1984166200064086620003dc565b60005b828110156200066a5784890151825560018201915060208501945060208101905062000643565b868310156200068a578489015162000686601f8916826200057a565b8355505b6001600288020188555050505b505050505050565b613e4280620006af6000396000f3fe608060405234801561001057600080fd5b50600436106101375760003560e01c806370a08231116100b8578063b88d4fde1161007c578063b88d4fde1461034c578063bec6501514610368578063c87b56dd14610398578063d204c45e146103c8578063e985e9c5146103e4578063f2fde38b1461041457610137565b806370a08231146102ba578063715018a6146102ea5780638da5cb5b146102f457806395d89b4114610312578063a22cb4651461033057610137565b806323b872dd116100ff57806323b872dd146101f257806342842e0e1461020e5780634e2488901461022a5780635e7844eb1461025a5780636352211e1461028a57610137565b806301ffc9a71461013c57806306f5497e1461016c57806306fdde0314610188578063081812fc146101a6578063095ea7b3146101d6575b600080fd5b61015660048036038101906101519190612762565b610430565b60405161016391906127aa565b60405180910390f35b610186600480360381019061018191906127fb565b610512565b005b6101906109f5565b60405161019d91906128b8565b60405180910390f35b6101c060048036038101906101bb91906127fb565b610a87565b6040516101cd919061291b565b60405180910390f35b6101f060048036038101906101eb9190612962565b610acd565b005b61020c600480360381019061020791906129a2565b610be4565b005b610228600480360381019061022391906129a2565b610c44565b005b610244600480360381019061023f91906129f5565b610c64565b6040516102519190612b2e565b60405180910390f35b610274600480360381019061026f91906129f5565b610de6565b6040516102819190612c0e565b60405180910390f35b6102a4600480360381019061029f91906127fb565b610e7d565b6040516102b1919061291b565b60405180910390f35b6102d460048036038101906102cf91906129f5565b610f2e565b6040516102e19190612c3f565b60405180910390f35b6102f2610fe5565b005b6102fc610ff9565b604051610309919061291b565b60405180910390f35b61031a611023565b60405161032791906128b8565b60405180910390f35b61034a60048036038101906103459190612c86565b6110b5565b005b61036660048036038101906103619190612dfb565b6110cb565b005b610382600480360381019061037d91906127fb565b61112d565b60405161038f919061291b565b60405180910390f35b6103b260048036038101906103ad91906127fb565b61116a565b6040516103bf91906128b8565b60405180910390f35b6103e260048036038101906103dd9190612f1f565b61117c565b005b6103fe60048036038101906103f99190612f7b565b6112d3565b60405161040b91906127aa565b60405180910390f35b61042e600480360381019061042991906129f5565b611367565b005b60007f80ac58cd000000000000000000000000000000000000000000000000000000007bffffffffffffffffffffffffffffffffffffffffffffffffffffffff1916827bffffffffffffffffffffffffffffffffffffffffffffffffffffffff191614806104fb57507f5b5e139f000000000000000000000000000000000000000000000000000000007bffffffffffffffffffffffffffffffffffffffffffffffffffffffff1916827bffffffffffffffffffffffffffffffffffffffffffffffffffffffff1916145b8061050b575061050a826113ea565b5b9050919050565b61051b81611454565b6000600b600083815260200190815260200160002060009054906101000a900473ffffffffffffffffffffffffffffffffffffffff169050600b600083815260200190815260200160002060006101000a81549073ffffffffffffffffffffffffffffffffffffffff021916905560005b600c60008373ffffffffffffffffffffffffffffffffffffffff1673ffffffffffffffffffffffffffffffffffffffff168152602001908152602001600020805490508110156107555782600c60008473ffffffffffffffffffffffffffffffffffffffff1673ffffffffffffffffffffffffffffffffffffffff168152602001908152602001600020828154811061062857610627612fbb565b5b90600052602060002001540361074257600c60008373ffffffffffffffffffffffffffffffffffffffff1673ffffffffffffffffffffffffffffffffffffffff1681526020019081526020016000206001600c60008573ffffffffffffffffffffffffffffffffffffffff1673ffffffffffffffffffffffffffffffffffffffff168152602001908152602001600020805490506106c69190613019565b815481106106d7576106d6612fbb565b5b9060005260206000200154600c60008473ffffffffffffffffffffffffffffffffffffffff1673ffffffffffffffffffffffffffffffffffffffff168152602001908152602001600020828154811061073357610732612fbb565b5b90600052602060002001819055505b808061074d9061304d565b91505061058c565b50600c60008273ffffffffffffffffffffffffffffffffffffffff1673ffffffffffffffffffffffffffffffffffffffff1681526020019081526020016000208054806107a5576107a4613095565b5b6001900381819060005260206000200160009055905560005b600a60003373ffffffffffffffffffffffffffffffffffffffff1673ffffffffffffffffffffffffffffffffffffffff1681526020019081526020016000208054905081101561098b5782600a60003373ffffffffffffffffffffffffffffffffffffffff1673ffffffffffffffffffffffffffffffffffffffff168152602001908152602001600020828154811061085a57610859612fbb565b5b90600052602060002001540361097857600a60003373ffffffffffffffffffffffffffffffffffffffff1673ffffffffffffffffffffffffffffffffffffffff1681526020019081526020016000206001600a60003373ffffffffffffffffffffffffffffffffffffffff1673ffffffffffffffffffffffffffffffffffffffff168152602001908152602001600020805490506108f89190613019565b8154811061090957610908612fbb565b5b9060005260206000200154600a60003373ffffffffffffffffffffffffffffffffffffffff1673ffffffffffffffffffffffffffffffffffffffff168152602001908152602001600020828154811061096557610964612fbb565b5b906000526020600020018190555061098b565b80806109839061304d565b9150506107be565b50600a60003373ffffffffffffffffffffffffffffffffffffffff1673ffffffffffffffffffffffffffffffffffffffff1681526020019081526020016000208054806109db576109da613095565b5b600190038181906000526020600020016000905590555050565b606060008054610a04906130f3565b80601f0160208091040260200160405190810160405280929190818152602001828054610a30906130f3565b8015610a7d5780601f10610a5257610100808354040283529160200191610a7d565b820191906000526020600020905b815481529060010190602001808311610a6057829003601f168201915b5050505050905090565b6000610a9282611460565b6004600083815260200190815260200160002060009054906101000a900473ffffffffffffffffffffffffffffffffffffffff169050919050565b6000610ad882610e7d565b90508073ffffffffffffffffffffffffffffffffffffffff168373ffffffffffffffffffffffffffffffffffffffff1603610b48576040517f08c379a0000000000000000000000000000000000000000000000000000000008152600401610b3f90613196565b60405180910390fd5b8073ffffffffffffffffffffffffffffffffffffffff16610b676114ab565b73ffffffffffffffffffffffffffffffffffffffff161480610b965750610b9581610b906114ab565b6112d3565b5b610bd5576040517f08c379a0000000000000000000000000000000000000000000000000000000008152600401610bcc90613228565b60405180910390fd5b610bdf83836114b3565b505050565b610bf5610bef6114ab565b8261156c565b610c34576040517f08c379a0000000000000000000000000000000000000000000000000000000008152600401610c2b906132ba565b60405180910390fd5b610c3f838383611601565b505050565b610c5f838383604051806020016040528060008152506110cb565b505050565b60606000600a60008473ffffffffffffffffffffffffffffffffffffffff1673ffffffffffffffffffffffffffffffffffffffff1681526020019081526020016000208054905067ffffffffffffffff811115610cc457610cc3612cd0565b5b604051908082528060200260200182016040528015610cf757816020015b6060815260200190600190039081610ce25790505b50905060005b600a60008573ffffffffffffffffffffffffffffffffffffffff1673ffffffffffffffffffffffffffffffffffffffff16815260200190815260200160002080549050811015610ddc57610dab600a60008673ffffffffffffffffffffffffffffffffffffffff1673ffffffffffffffffffffffffffffffffffffffff1681526020019081526020016000208281548110610d9b57610d9a612fbb565b5b906000526020600020015461116a565b828281518110610dbe57610dbd612fbb565b5b60200260200101819052508080610dd49061304d565b915050610cfd565b5080915050919050565b6060600c60008373ffffffffffffffffffffffffffffffffffffffff1673ffffffffffffffffffffffffffffffffffffffff168152602001908152602001600020805480602002602001604051908101604052809291908181526020018280548015610e7157602002820191906000526020600020905b815481526020019060010190808311610e5d575b50505050509050919050565b6000806002600084815260200190815260200160002060009054906101000a900473ffffffffffffffffffffffffffffffffffffffff169050600073ffffffffffffffffffffffffffffffffffffffff168173ffffffffffffffffffffffffffffffffffffffff1603610f25576040517f08c379a0000000000000000000000000000000000000000000000000000000008152600401610f1c90613326565b60405180910390fd5b80915050919050565b60008073ffffffffffffffffffffffffffffffffffffffff168273ffffffffffffffffffffffffffffffffffffffff1603610f9e576040517f08c379a0000000000000000000000000000000000000000000000000000000008152600401610f95906133b8565b60405180910390fd5b600360008373ffffffffffffffffffffffffffffffffffffffff1673ffffffffffffffffffffffffffffffffffffffff168152602001908152602001600020549050919050565b610fed611867565b610ff760006118e5565b565b6000600760009054906101000a900473ffffffffffffffffffffffffffffffffffffffff16905090565b606060018054611032906130f3565b80601f016020809104026020016040519081016040528092919081815260200182805461105e906130f3565b80156110ab5780601f10611080576101008083540402835291602001916110ab565b820191906000526020600020905b81548152906001019060200180831161108e57829003601f168201915b5050505050905090565b6110c76110c06114ab565b83836119ab565b5050565b6110dc6110d66114ab565b8361156c565b61111b576040517f08c379a0000000000000000000000000000000000000000000000000000000008152600401611112906132ba565b60405180910390fd5b61112784848484611b17565b50505050565b6000600b600083815260200190815260200160002060009054906101000a900473ffffffffffffffffffffffffffffffffffffffff169050919050565b606061117582611b73565b9050919050565b611184611867565b60006111906008611c85565b905061119c6008611c93565b6111a68382611ca9565b6111b08183611cc7565b33600b600083815260200190815260200160002060006101000a81548173ffffffffffffffffffffffffffffffffffffffff021916908373ffffffffffffffffffffffffffffffffffffffff160217905550600c60003373ffffffffffffffffffffffffffffffffffffffff1673ffffffffffffffffffffffffffffffffffffffff168152602001908152602001600020819080600181540180825580915050600190039060005260206000200160009091909190915055600a60008473ffffffffffffffffffffffffffffffffffffffff1673ffffffffffffffffffffffffffffffffffffffff168152602001908152602001600020819080600181540180825580915050600190039060005260206000200160009091909190915055505050565b6000600560008473ffffffffffffffffffffffffffffffffffffffff1673ffffffffffffffffffffffffffffffffffffffff16815260200190815260200160002060008373ffffffffffffffffffffffffffffffffffffffff1673ffffffffffffffffffffffffffffffffffffffff16815260200190815260200160002060009054906101000a900460ff16905092915050565b61136f611867565b600073ffffffffffffffffffffffffffffffffffffffff168173ffffffffffffffffffffffffffffffffffffffff16036113de576040517f08c379a00000000000000000000000000000000000000000000000000000000081526004016113d59061344a565b60405180910390fd5b6113e7816118e5565b50565b60007f01ffc9a7000000000000000000000000000000000000000000000000000000007bffffffffffffffffffffffffffffffffffffffffffffffffffffffff1916827bffffffffffffffffffffffffffffffffffffffffffffffffffffffff1916149050919050565b61145d81611d34565b50565b61146981611d87565b6114a8576040517f08c379a000000000000000000000000000000000000000000000000000000000815260040161149f90613326565b60405180910390fd5b50565b600033905090565b816004600083815260200190815260200160002060006101000a81548173ffffffffffffffffffffffffffffffffffffffff021916908373ffffffffffffffffffffffffffffffffffffffff160217905550808273ffffffffffffffffffffffffffffffffffffffff1661152683610e7d565b73ffffffffffffffffffffffffffffffffffffffff167f8c5be1e5ebec7d5bd14f71427d1e84f3dd0314c0f7b2291e5b200ac8c7c3b92560405160405180910390a45050565b60008061157883610e7d565b90508073ffffffffffffffffffffffffffffffffffffffff168473ffffffffffffffffffffffffffffffffffffffff1614806115ba57506115b981856112d3565b5b806115f857508373ffffffffffffffffffffffffffffffffffffffff166115e084610a87565b73ffffffffffffffffffffffffffffffffffffffff16145b91505092915050565b8273ffffffffffffffffffffffffffffffffffffffff1661162182610e7d565b73ffffffffffffffffffffffffffffffffffffffff1614611677576040517f08c379a000000000000000000000000000000000000000000000000000000000815260040161166e906134dc565b60405180910390fd5b600073ffffffffffffffffffffffffffffffffffffffff168273ffffffffffffffffffffffffffffffffffffffff16036116e6576040517f08c379a00000000000000000000000000000000000000000000000000000000081526004016116dd9061356e565b60405180910390fd5b6116f1838383611df3565b6116fc6000826114b3565b6001600360008573ffffffffffffffffffffffffffffffffffffffff1673ffffffffffffffffffffffffffffffffffffffff168152602001908152602001600020600082825461174c9190613019565b925050819055506001600360008473ffffffffffffffffffffffffffffffffffffffff1673ffffffffffffffffffffffffffffffffffffffff16815260200190815260200160002060008282546117a3919061358e565b92505081905550816002600083815260200190815260200160002060006101000a81548173ffffffffffffffffffffffffffffffffffffffff021916908373ffffffffffffffffffffffffffffffffffffffff160217905550808273ffffffffffffffffffffffffffffffffffffffff168473ffffffffffffffffffffffffffffffffffffffff167fddf252ad1be2c89b69c2b068fc378daa952ba7f163c4a11628f55a4df523b3ef60405160405180910390a4611862838383611fb5565b505050565b61186f6114ab565b73ffffffffffffffffffffffffffffffffffffffff1661188d610ff9565b73ffffffffffffffffffffffffffffffffffffffff16146118e3576040517f08c379a00000000000000000000000000000000000000000000000000000000081526004016118da9061360e565b60405180910390fd5b565b6000600760009054906101000a900473ffffffffffffffffffffffffffffffffffffffff16905081600760006101000a81548173ffffffffffffffffffffffffffffffffffffffff021916908373ffffffffffffffffffffffffffffffffffffffff1602179055508173ffffffffffffffffffffffffffffffffffffffff168173ffffffffffffffffffffffffffffffffffffffff167f8be0079c531659141344cd1fd0a4f28419497f9722a3daafe3b4186f6b6457e060405160405180910390a35050565b8173ffffffffffffffffffffffffffffffffffffffff168373ffffffffffffffffffffffffffffffffffffffff1603611a19576040517f08c379a0000000000000000000000000000000000000000000000000000000008152600401611a109061367a565b60405180910390fd5b80600560008573ffffffffffffffffffffffffffffffffffffffff1673ffffffffffffffffffffffffffffffffffffffff16815260200190815260200160002060008473ffffffffffffffffffffffffffffffffffffffff1673ffffffffffffffffffffffffffffffffffffffff16815260200190815260200160002060006101000a81548160ff0219169083151502179055508173ffffffffffffffffffffffffffffffffffffffff168373ffffffffffffffffffffffffffffffffffffffff167f17307eab39ab6107e8899845ad3d59bd9653f200f220920489ca2b5937696c3183604051611b0a91906127aa565b60405180910390a3505050565b611b22848484611601565b611b2e84848484611fba565b611b6d576040517f08c379a0000000000000000000000000000000000000000000000000000000008152600401611b649061370c565b60405180910390fd5b50505050565b6060611b7e82611460565b6000600660008481526020019081526020016000208054611b9e906130f3565b80601f0160208091040260200160405190810160405280929190818152602001828054611bca906130f3565b8015611c175780601f10611bec57610100808354040283529160200191611c17565b820191906000526020600020905b815481529060010190602001808311611bfa57829003601f168201915b505050505090506000611c28612141565b90506000815103611c3d578192505050611c80565b600082511115611c72578082604051602001611c5a929190613768565b60405160208183030381529060405292505050611c80565b611c7b84612158565b925050505b919050565b600081600001549050919050565b6001816000016000828254019250508190555050565b611cc38282604051806020016040528060008152506121c0565b5050565b611cd082611d87565b611d0f576040517f08c379a0000000000000000000000000000000000000000000000000000000008152600401611d06906137fe565b60405180910390fd5b80600660008481526020019081526020016000209081611d2f91906139ca565b505050565b611d3d8161221b565b6000600660008381526020019081526020016000208054611d5d906130f3565b905014611d8457600660008281526020019081526020016000206000611d839190612699565b5b50565b60008073ffffffffffffffffffffffffffffffffffffffff166002600084815260200190815260200160002060009054906101000a900473ffffffffffffffffffffffffffffffffffffffff1673ffffffffffffffffffffffffffffffffffffffff1614159050919050565b600073ffffffffffffffffffffffffffffffffffffffff168373ffffffffffffffffffffffffffffffffffffffff161480611e5a5750600073ffffffffffffffffffffffffffffffffffffffff168273ffffffffffffffffffffffffffffffffffffffff16145b611e99576040517f08c379a0000000000000000000000000000000000000000000000000000000008152600401611e9090613ae8565b60405180910390fd5b600073ffffffffffffffffffffffffffffffffffffffff168273ffffffffffffffffffffffffffffffffffffffff1603611fa5573373ffffffffffffffffffffffffffffffffffffffff16600b600083815260200190815260200160002060009054906101000a900473ffffffffffffffffffffffffffffffffffffffff1673ffffffffffffffffffffffffffffffffffffffff161480611f6557503373ffffffffffffffffffffffffffffffffffffffff168373ffffffffffffffffffffffffffffffffffffffff16145b611fa4576040517f08c379a0000000000000000000000000000000000000000000000000000000008152600401611f9b90613ba0565b60405180910390fd5b5b611fb0838383612338565b505050565b505050565b6000611fdb8473ffffffffffffffffffffffffffffffffffffffff1661233d565b15612134578373ffffffffffffffffffffffffffffffffffffffff1663150b7a026120046114ab565b8786866040518563ffffffff1660e01b81526004016120269493929190613c15565b6020604051808303816000875af192505050801561206257506040513d601f19601f8201168201806040525081019061205f9190613c76565b60015b6120e4573d8060008114612092576040519150601f19603f3d011682016040523d82523d6000602084013e612097565b606091505b5060008151036120dc576040517f08c379a00000000000000000000000000000000000000000000000000000000081526004016120d39061370c565b60405180910390fd5b805181602001fd5b63150b7a0260e01b7bffffffffffffffffffffffffffffffffffffffffffffffffffffffff1916817bffffffffffffffffffffffffffffffffffffffffffffffffffffffff191614915050612139565b600190505b949350505050565b606060405180602001604052806000815250905090565b606061216382611460565b600061216d612141565b9050600081511161218d57604051806020016040528060008152506121b8565b8061219784612360565b6040516020016121a8929190613768565b6040516020818303038152906040525b915050919050565b6121ca83836124c0565b6121d76000848484611fba565b612216576040517f08c379a000000000000000000000000000000000000000000000000000000000815260040161220d9061370c565b60405180910390fd5b505050565b600061222682610e7d565b905061223481600084611df3565b61223f6000836114b3565b6001600360008373ffffffffffffffffffffffffffffffffffffffff1673ffffffffffffffffffffffffffffffffffffffff168152602001908152602001600020600082825461228f9190613019565b925050819055506002600083815260200190815260200160002060006101000a81549073ffffffffffffffffffffffffffffffffffffffff021916905581600073ffffffffffffffffffffffffffffffffffffffff168273ffffffffffffffffffffffffffffffffffffffff167fddf252ad1be2c89b69c2b068fc378daa952ba7f163c4a11628f55a4df523b3ef60405160405180910390a461233481600084611fb5565b5050565b505050565b6000808273ffffffffffffffffffffffffffffffffffffffff163b119050919050565b6060600082036123a7576040518060400160405280600181526020017f300000000000000000000000000000000000000000000000000000000000000081525090506124bb565b600082905060005b600082146123d95780806123c29061304d565b915050600a826123d29190613cd2565b91506123af565b60008167ffffffffffffffff8111156123f5576123f4612cd0565b5b6040519080825280601f01601f1916602001820160405280156124275781602001600182028036833780820191505090505b5090505b600085146124b4576001826124409190613019565b9150600a8561244f9190613d03565b603061245b919061358e565b60f81b81838151811061247157612470612fbb565b5b60200101907effffffffffffffffffffffffffffffffffffffffffffffffffffffffffffff1916908160001a905350600a856124ad9190613cd2565b945061242b565b8093505050505b919050565b600073ffffffffffffffffffffffffffffffffffffffff168273ffffffffffffffffffffffffffffffffffffffff160361252f576040517f08c379a000000000000000000000000000000000000000000000000000000000815260040161252690613d80565b60405180910390fd5b61253881611d87565b15612578576040517f08c379a000000000000000000000000000000000000000000000000000000000815260040161256f90613dec565b60405180910390fd5b61258460008383611df3565b6001600360008473ffffffffffffffffffffffffffffffffffffffff1673ffffffffffffffffffffffffffffffffffffffff16815260200190815260200160002060008282546125d4919061358e565b92505081905550816002600083815260200190815260200160002060006101000a81548173ffffffffffffffffffffffffffffffffffffffff021916908373ffffffffffffffffffffffffffffffffffffffff160217905550808273ffffffffffffffffffffffffffffffffffffffff16600073ffffffffffffffffffffffffffffffffffffffff167fddf252ad1be2c89b69c2b068fc378daa952ba7f163c4a11628f55a4df523b3ef60405160405180910390a461269560008383611fb5565b5050565b5080546126a5906130f3565b6000825580601f106126b757506126d6565b601f0160209004906000526020600020908101906126d591906126d9565b5b50565b5b808211156126f25760008160009055506001016126da565b5090565b6000604051905090565b600080fd5b600080fd5b60007fffffffff0000000000000000000000000000000000000000000000000000000082169050919050565b61273f8161270a565b811461274a57600080fd5b50565b60008135905061275c81612736565b92915050565b60006020828403121561277857612777612700565b5b60006127868482850161274d565b91505092915050565b60008115159050919050565b6127a48161278f565b82525050565b60006020820190506127bf600083018461279b565b92915050565b6000819050919050565b6127d8816127c5565b81146127e357600080fd5b50565b6000813590506127f5816127cf565b92915050565b60006020828403121561281157612810612700565b5b600061281f848285016127e6565b91505092915050565b600081519050919050565b600082825260208201905092915050565b60005b83811015612862578082015181840152602081019050612847565b60008484015250505050565b6000601f19601f8301169050919050565b600061288a82612828565b6128948185612833565b93506128a4818560208601612844565b6128ad8161286e565b840191505092915050565b600060208201905081810360008301526128d2818461287f565b905092915050565b600073ffffffffffffffffffffffffffffffffffffffff82169050919050565b6000612905826128da565b9050919050565b612915816128fa565b82525050565b6000602082019050612930600083018461290c565b92915050565b61293f816128fa565b811461294a57600080fd5b50565b60008135905061295c81612936565b92915050565b6000806040838503121561297957612978612700565b5b60006129878582860161294d565b9250506020612998858286016127e6565b9150509250929050565b6000806000606084860312156129bb576129ba612700565b5b60006129c98682870161294d565b93505060206129da8682870161294d565b92505060406129eb868287016127e6565b9150509250925092565b600060208284031215612a0b57612a0a612700565b5b6000612a198482850161294d565b91505092915050565b600081519050919050565b600082825260208201905092915050565b6000819050602082019050919050565b600082825260208201905092915050565b6000612a6a82612828565b612a748185612a4e565b9350612a84818560208601612844565b612a8d8161286e565b840191505092915050565b6000612aa48383612a5f565b905092915050565b6000602082019050919050565b6000612ac482612a22565b612ace8185612a2d565b935083602082028501612ae085612a3e565b8060005b85811015612b1c5784840389528151612afd8582612a98565b9450612b0883612aac565b925060208a01995050600181019050612ae4565b50829750879550505050505092915050565b60006020820190508181036000830152612b488184612ab9565b905092915050565b600081519050919050565b600082825260208201905092915050565b6000819050602082019050919050565b612b85816127c5565b82525050565b6000612b978383612b7c565b60208301905092915050565b6000602082019050919050565b6000612bbb82612b50565b612bc58185612b5b565b9350612bd083612b6c565b8060005b83811015612c01578151612be88882612b8b565b9750612bf383612ba3565b925050600181019050612bd4565b5085935050505092915050565b60006020820190508181036000830152612c288184612bb0565b905092915050565b612c39816127c5565b82525050565b6000602082019050612c546000830184612c30565b92915050565b612c638161278f565b8114612c6e57600080fd5b50565b600081359050612c8081612c5a565b92915050565b60008060408385031215612c9d57612c9c612700565b5b6000612cab8582860161294d565b9250506020612cbc85828601612c71565b9150509250929050565b600080fd5b600080fd5b7f4e487b7100000000000000000000000000000000000000000000000000000000600052604160045260246000fd5b612d088261286e565b810181811067ffffffffffffffff82111715612d2757612d26612cd0565b5b80604052505050565b6000612d3a6126f6565b9050612d468282612cff565b919050565b600067ffffffffffffffff821115612d6657612d65612cd0565b5b612d6f8261286e565b9050602081019050919050565b82818337600083830152505050565b6000612d9e612d9984612d4b565b612d30565b905082815260208101848484011115612dba57612db9612ccb565b5b612dc5848285612d7c565b509392505050565b600082601f830112612de257612de1612cc6565b5b8135612df2848260208601612d8b565b91505092915050565b60008060008060808587031215612e1557612e14612700565b5b6000612e238782880161294d565b9450506020612e348782880161294d565b9350506040612e45878288016127e6565b925050606085013567ffffffffffffffff811115612e6657612e65612705565b5b612e7287828801612dcd565b91505092959194509250565b600067ffffffffffffffff821115612e9957612e98612cd0565b5b612ea28261286e565b9050602081019050919050565b6000612ec2612ebd84612e7e565b612d30565b905082815260208101848484011115612ede57612edd612ccb565b5b612ee9848285612d7c565b509392505050565b600082601f830112612f0657612f05612cc6565b5b8135612f16848260208601612eaf565b91505092915050565b60008060408385031215612f3657612f35612700565b5b6000612f448582860161294d565b925050602083013567ffffffffffffffff811115612f6557612f64612705565b5b612f7185828601612ef1565b9150509250929050565b60008060408385031215612f9257612f91612700565b5b6000612fa08582860161294d565b9250506020612fb18582860161294d565b9150509250929050565b7f4e487b7100000000000000000000000000000000000000000000000000000000600052603260045260246000fd5b7f4e487b7100000000000000000000000000000000000000000000000000000000600052601160045260246000fd5b6000613024826127c5565b915061302f836127c5565b925082820390508181111561304757613046612fea565b5b92915050565b6000613058826127c5565b91507fffffffffffffffffffffffffffffffffffffffffffffffffffffffffffffffff820361308a57613089612fea565b5b600182019050919050565b7f4e487b7100000000000000000000000000000000000000000000000000000000600052603160045260246000fd5b7f4e487b7100000000000000000000000000000000000000000000000000000000600052602260045260246000fd5b6000600282049050600182168061310b57607f821691505b60208210810361311e5761311d6130c4565b5b50919050565b7f4552433732313a20617070726f76616c20746f2063757272656e74206f776e6560008201527f7200000000000000000000000000000000000000000000000000000000000000602082015250565b6000613180602183612833565b915061318b82613124565b604082019050919050565b600060208201905081810360008301526131af81613173565b9050919050565b7f4552433732313a20617070726f76652063616c6c6572206973206e6f7420746f60008201527f6b656e206f776e6572206e6f7220617070726f76656420666f7220616c6c0000602082015250565b6000613212603e83612833565b915061321d826131b6565b604082019050919050565b6000602082019050818103600083015261324181613205565b9050919050565b7f4552433732313a2063616c6c6572206973206e6f7420746f6b656e206f776e6560008201527f72206e6f7220617070726f766564000000000000000000000000000000000000602082015250565b60006132a4602e83612833565b91506132af82613248565b604082019050919050565b600060208201905081810360008301526132d381613297565b9050919050565b7f4552433732313a20696e76616c696420746f6b656e2049440000000000000000600082015250565b6000613310601883612833565b915061331b826132da565b602082019050919050565b6000602082019050818103600083015261333f81613303565b9050919050565b7f4552433732313a2061646472657373207a65726f206973206e6f74206120766160008201527f6c6964206f776e65720000000000000000000000000000000000000000000000602082015250565b60006133a2602983612833565b91506133ad82613346565b604082019050919050565b600060208201905081810360008301526133d181613395565b9050919050565b7f4f776e61626c653a206e6577206f776e657220697320746865207a65726f206160008201527f6464726573730000000000000000000000000000000000000000000000000000602082015250565b6000613434602683612833565b915061343f826133d8565b604082019050919050565b6000602082019050818103600083015261346381613427565b9050919050565b7f4552433732313a207472616e736665722066726f6d20696e636f72726563742060008201527f6f776e6572000000000000000000000000000000000000000000000000000000602082015250565b60006134c6602583612833565b91506134d18261346a565b604082019050919050565b600060208201905081810360008301526134f5816134b9565b9050919050565b7f4552433732313a207472616e7366657220746f20746865207a65726f2061646460008201527f7265737300000000000000000000000000000000000000000000000000000000602082015250565b6000613558602483612833565b9150613563826134fc565b604082019050919050565b600060208201905081810360008301526135878161354b565b9050919050565b6000613599826127c5565b91506135a4836127c5565b92508282019050808211156135bc576135bb612fea565b5b92915050565b7f4f776e61626c653a2063616c6c6572206973206e6f7420746865206f776e6572600082015250565b60006135f8602083612833565b9150613603826135c2565b602082019050919050565b60006020820190508181036000830152613627816135eb565b9050919050565b7f4552433732313a20617070726f766520746f2063616c6c657200000000000000600082015250565b6000613664601983612833565b915061366f8261362e565b602082019050919050565b6000602082019050818103600083015261369381613657565b9050919050565b7f4552433732313a207472616e7366657220746f206e6f6e20455243373231526560008201527f63656976657220696d706c656d656e7465720000000000000000000000000000602082015250565b60006136f6603283612833565b91506137018261369a565b604082019050919050565b60006020820190508181036000830152613725816136e9565b9050919050565b600081905092915050565b600061374282612828565b61374c818561372c565b935061375c818560208601612844565b80840191505092915050565b60006137748285613737565b91506137808284613737565b91508190509392505050565b7f45524337323155524953746f726167653a2055524920736574206f66206e6f6e60008201527f6578697374656e7420746f6b656e000000000000000000000000000000000000602082015250565b60006137e8602e83612833565b91506137f38261378c565b604082019050919050565b60006020820190508181036000830152613817816137db565b9050919050565b60008190508160005260206000209050919050565b60006020601f8301049050919050565b600082821b905092915050565b6000600883026138807fffffffffffffffffffffffffffffffffffffffffffffffffffffffffffffffff82613843565b61388a8683613843565b95508019841693508086168417925050509392505050565b6000819050919050565b60006138c76138c26138bd846127c5565b6138a2565b6127c5565b9050919050565b6000819050919050565b6138e1836138ac565b6138f56138ed826138ce565b848454613850565b825550505050565b600090565b61390a6138fd565b6139158184846138d8565b505050565b5b818110156139395761392e600082613902565b60018101905061391b565b5050565b601f82111561397e5761394f8161381e565b61395884613833565b81016020851015613967578190505b61397b61397385613833565b83018261391a565b50505b505050565b600082821c905092915050565b60006139a160001984600802613983565b1980831691505092915050565b60006139ba8383613990565b9150826002028217905092915050565b6139d382612828565b67ffffffffffffffff8111156139ec576139eb612cd0565b5b6139f682546130f3565b613a0182828561393d565b600060209050601f831160018114613a345760008415613a22578287015190505b613a2c85826139ae565b865550613a94565b601f198416613a428661381e565b60005b82811015613a6a57848901518255600182019150602085019450602081019050613a45565b86831015613a875784890151613a83601f891682613990565b8355505b6001600288020188555050505b505050505050565b7f4572723a20746f6b656e207472616e7366657220697320424c4f434b45440000600082015250565b6000613ad2601e83612833565b9150613add82613a9c565b602082019050919050565b60006020820190508181036000830152613b0181613ac5565b9050919050565b7f6f6e6c792074686520697373756572206f66207468652063657274696669636160008201527f7465206f7220746865206f776e65722063616e206275726e2074686520746f6b60208201527f656e2e0000000000000000000000000000000000000000000000000000000000604082015250565b6000613b8a604383612833565b9150613b9582613b08565b606082019050919050565b60006020820190508181036000830152613bb981613b7d565b9050919050565b600081519050919050565b600082825260208201905092915050565b6000613be782613bc0565b613bf18185613bcb565b9350613c01818560208601612844565b613c0a8161286e565b840191505092915050565b6000608082019050613c2a600083018761290c565b613c37602083018661290c565b613c446040830185612c30565b8181036060830152613c568184613bdc565b905095945050505050565b600081519050613c7081612736565b92915050565b600060208284031215613c8c57613c8b612700565b5b6000613c9a84828501613c61565b91505092915050565b7f4e487b7100000000000000000000000000000000000000000000000000000000600052601260045260246000fd5b6000613cdd826127c5565b9150613ce8836127c5565b925082613cf857613cf7613ca3565b5b828204905092915050565b6000613d0e826127c5565b9150613d19836127c5565b925082613d2957613d28613ca3565b5b828206905092915050565b7f4552433732313a206d696e7420746f20746865207a65726f2061646472657373600082015250565b6000613d6a602083612833565b9150613d7582613d34565b602082019050919050565b60006020820190508181036000830152613d9981613d5d565b9050919050565b7f4552433732313a20746f6b656e20616c7265616479206d696e74656400000000600082015250565b6000613dd6601c83612833565b9150613de182613da0565b602082019050919050565b60006020820190508181036000830152613e0581613dc9565b905091905056fea26469706673582212207d0c4f835991ba2df72babec62d16fac784a7fffa52c68804323e23744237d0564736f6c63430008110033",
  "immutableReferences": {},
  "source": "// SPDX-License-Identifier: MIT\npragma solidity ^0.8.4;\n\nimport \"@openzeppelin/contracts/token/ERC721/ERC721.sol\";\nimport \"@openzeppelin/contracts/token/ERC721/extensions/ERC721URIStorage.sol\";\nimport \"@openzeppelin/contracts/access/Ownable.sol\";\nimport \"@openzeppelin/contracts/utils/Counters.sol\";\n\ncontract SoulBoundToken is ERC721, ERC721URIStorage, Ownable {\n    using Counters for Counters.Counter;\n\n    Counters.Counter private _tokenIdCounter;\n    string private _baseTokenURI;\n\n    mapping(address => uint256[]) private _userInfo;\n\n    mapping(uint256 => address) private _tokenIssuer;\n\n    mapping(address => uint256[]) private _issuedTokens;\n\n    constructor(string memory name_, string memory symbol_)\n        ERC721(name_, symbol_)\n    {}\n\n    function safeMint(address to, string memory uri) public onlyOwner {\n        uint256 tokenId = _tokenIdCounter.current();\n        _tokenIdCounter.increment();\n        _safeMint(to, tokenId);\n        _setTokenURI(tokenId, uri);\n        _tokenIssuer[tokenId] = msg.sender;\n        _issuedTokens[msg.sender].push(tokenId);\n        _userInfo[to].push(tokenId);\n    }\n\n    function _beforeTokenTransfer(\n        address from,\n        address to,\n        uint256 tokenId\n    ) internal virtual override {\n        require(\n            from == address(0) || to == address(0),\n            \"Err: token transfer is BLOCKED\"\n        );\n        if (to == address(0)) {\n            require(\n                _tokenIssuer[tokenId] == msg.sender || from == msg.sender,\n                \"only the issuer of the certificate or the owner can burn the token.\"\n            );\n        }\n        super._beforeTokenTransfer(from, to, tokenId);\n    }\n\n    function revokeCertificate(uint256 tokenId) public {\n        _burn(tokenId);\n        address issuer = _tokenIssuer[tokenId];\n        delete _tokenIssuer[tokenId];\n        for (uint256 i = 0; i < _issuedTokens[issuer].length; i++) {\n            if (_issuedTokens[issuer][i] == tokenId) {\n                _issuedTokens[issuer][i] = _issuedTokens[issuer][\n                    _issuedTokens[issuer].length - 1\n                ];\n            }\n        }\n        _issuedTokens[issuer].pop();\n        for (uint256 i = 0; i < _userInfo[msg.sender].length; i++) {\n            if (_userInfo[msg.sender][i] == tokenId) {\n                _userInfo[msg.sender][i] = _userInfo[msg.sender][\n                    _userInfo[msg.sender].length - 1\n                ];\n                break;\n            }\n        }\n        _userInfo[msg.sender].pop();\n    }\n\n    function getTokenIssuer(uint256 tokenId) public view returns (address) {\n        return _tokenIssuer[tokenId];\n    }\n\n    function getTokensIssuedByAddress(address Issuer)\n        public\n        view\n        returns (uint256[] memory)\n    {\n        return _issuedTokens[Issuer];\n    }\n\n    function getURIsFromAddress(address tokenOwner)\n        public\n        view\n        returns (string[] memory)\n    {\n        string[] memory URIs = new string[](_userInfo[tokenOwner].length);\n        for (uint256 i = 0; i < _userInfo[tokenOwner].length; i++) {\n            URIs[i] = tokenURI(_userInfo[tokenOwner][i]);\n        }\n        return URIs;\n    }\n\n    // The following functions are overrides required by Solidity.\n\n    function _burn(uint256 tokenId)\n        internal\n        override(ERC721, ERC721URIStorage)\n    {\n        super._burn(tokenId);\n    }\n\n    function tokenURI(uint256 tokenId)\n        public\n        view\n        override(ERC721, ERC721URIStorage)\n        returns (string memory)\n    {\n        return super.tokenURI(tokenId);\n    }\n}\n",
  "sourcePath": "/Users/kalski/github/junction_contracts/contracts/SoulBoundToken.sol",
  "compiler": {
    "name": "solc",
    "version": "0.8.17+commit.8df45f5f.Emscripten.clang"
  },
  "schemaVersion": "3.4.10",
  "updatedAt": "2022-11-05T14:59:48.399Z",
  "devdoc": {
    "kind": "dev",
    "methods": {
      "approve(address,uint256)": {
        "details": "See {IERC721-approve}."
      },
      "balanceOf(address)": {
        "details": "See {IERC721-balanceOf}."
      },
      "getApproved(uint256)": {
        "details": "See {IERC721-getApproved}."
      },
      "isApprovedForAll(address,address)": {
        "details": "See {IERC721-isApprovedForAll}."
      },
      "name()": {
        "details": "See {IERC721Metadata-name}."
      },
      "owner()": {
        "details": "Returns the address of the current owner."
      },
      "ownerOf(uint256)": {
        "details": "See {IERC721-ownerOf}."
      },
      "renounceOwnership()": {
        "details": "Leaves the contract without owner. It will not be possible to call `onlyOwner` functions anymore. Can only be called by the current owner. NOTE: Renouncing ownership will leave the contract without an owner, thereby removing any functionality that is only available to the owner."
      },
      "safeTransferFrom(address,address,uint256)": {
        "details": "See {IERC721-safeTransferFrom}."
      },
      "safeTransferFrom(address,address,uint256,bytes)": {
        "details": "See {IERC721-safeTransferFrom}."
      },
      "setApprovalForAll(address,bool)": {
        "details": "See {IERC721-setApprovalForAll}."
      },
      "supportsInterface(bytes4)": {
        "details": "See {IERC165-supportsInterface}."
      },
      "symbol()": {
        "details": "See {IERC721Metadata-symbol}."
      },
      "transferFrom(address,address,uint256)": {
        "details": "See {IERC721-transferFrom}."
      },
      "transferOwnership(address)": {
        "details": "Transfers ownership of the contract to a new account (`newOwner`). Can only be called by the current owner."
      }
    },
    "version": 1
  },
  "userdoc": {
    "kind": "user",
    "methods": {},
    "version": 1
  }
}