{
  "address": "0xA76D4203DD6Df047cdC40efb9C5E7f40C0727AC7",
  "contractName": "SoulBoundToken",
  "abi": [
    {
      "inputs": [
        {
          "internalType": "string",
          "name": "name_",
          "type": "string"
        },
        {
          "internalType": "string",
          "name": "symbol_",
          "type": "string"
        }
      ],
      "stateMutability": "nonpayable",
      "type": "constructor"
    },
    {
      "anonymous": false,
      "inputs": [
        {
          "indexed": true,
          "internalType": "address",
          "name": "owner",
          "type": "address"
        },
        {
          "indexed": true,
          "internalType": "address",
          "name": "approved",
          "type": "address"
        },
        {
          "indexed": true,
          "internalType": "uint256",
          "name": "tokenId",
          "type": "uint256"
        }
      ],
      "name": "Approval",
      "type": "event"
    },
    {
      "anonymous": false,
      "inputs": [
        {
          "indexed": true,
          "internalType": "address",
          "name": "owner",
          "type": "address"
        },
        {
          "indexed": true,
          "internalType": "address",
          "name": "operator",
          "type": "address"
        },
        {
          "indexed": false,
          "internalType": "bool",
          "name": "approved",
          "type": "bool"
        }
      ],
      "name": "ApprovalForAll",
      "type": "event"
    },
    {
      "anonymous": false,
      "inputs": [
        {
          "indexed": true,
          "internalType": "address",
          "name": "previousOwner",
          "type": "address"
        },
        {
          "indexed": true,
          "internalType": "address",
          "name": "newOwner",
          "type": "address"
        }
      ],
      "name": "OwnershipTransferred",
      "type": "event"
    },
    {
      "anonymous": false,
      "inputs": [
        {
          "indexed": true,
          "internalType": "address",
          "name": "from",
          "type": "address"
        },
        {
          "indexed": true,
          "internalType": "address",
          "name": "to",
          "type": "address"
        },
        {
          "indexed": true,
          "internalType": "uint256",
          "name": "tokenId",
          "type": "uint256"
        }
      ],
      "name": "Transfer",
      "type": "event"
    },
    {
      "inputs": [
        {
          "internalType": "address",
          "name": "to",
          "type": "address"
        },
        {
          "internalType": "uint256",
          "name": "tokenId",
          "type": "uint256"
        }
      ],
      "name": "approve",
      "outputs": [],
      "stateMutability": "nonpayable",
      "type": "function"
    },
    {
      "inputs": [
        {
          "internalType": "address",
          "name": "owner",
          "type": "address"
        }
      ],
      "name": "balanceOf",
      "outputs": [
        {
          "internalType": "uint256",
          "name": "",
          "type": "uint256"
        }
      ],
      "stateMutability": "view",
      "type": "function",
      "constant": true
    },
    {
      "inputs": [
        {
          "internalType": "uint256",
          "name": "tokenId",
          "type": "uint256"
        }
      ],
      "name": "getApproved",
      "outputs": [
        {
          "internalType": "address",
          "name": "",
          "type": "address"
        }
      ],
      "stateMutability": "view",
      "type": "function",
      "constant": true
    },
    {
      "inputs": [
        {
          "internalType": "address",
          "name": "owner",
          "type": "address"
        },
        {
          "internalType": "address",
          "name": "operator",
          "type": "address"
        }
      ],
      "name": "isApprovedForAll",
      "outputs": [
        {
          "internalType": "bool",
          "name": "",
          "type": "bool"
        }
      ],
      "stateMutability": "view",
      "type": "function",
      "constant": true
    },
    {
      "inputs": [],
      "name": "name",
      "outputs": [
        {
          "internalType": "string",
          "name": "",
          "type": "string"
        }
      ],
      "stateMutability": "view",
      "type": "function",
      "constant": true
    },
    {
      "inputs": [],
      "name": "owner",
      "outputs": [
        {
          "internalType": "address",
          "name": "",
          "type": "address"
        }
      ],
      "stateMutability": "view",
      "type": "function",
      "constant": true
    },
    {
      "inputs": [
        {
          "internalType": "uint256",
          "name": "tokenId",
          "type": "uint256"
        }
      ],
      "name": "ownerOf",
      "outputs": [
        {
          "internalType": "address",
          "name": "",
          "type": "address"
        }
      ],
      "stateMutability": "view",
      "type": "function",
      "constant": true
    },
    {
      "inputs": [],
      "name": "renounceOwnership",
      "outputs": [],
      "stateMutability": "nonpayable",
      "type": "function"
    },
    {
      "inputs": [
        {
          "internalType": "address",
          "name": "from",
          "type": "address"
        },
        {
          "internalType": "address",
          "name": "to",
          "type": "address"
        },
        {
          "internalType": "uint256",
          "name": "tokenId",
          "type": "uint256"
        }
      ],
      "name": "safeTransferFrom",
      "outputs": [],
      "stateMutability": "nonpayable",
      "type": "function"
    },
    {
      "inputs": [
        {
          "internalType": "address",
          "name": "from",
          "type": "address"
        },
        {
          "internalType": "address",
          "name": "to",
          "type": "address"
        },
        {
          "internalType": "uint256",
          "name": "tokenId",
          "type": "uint256"
        },
        {
          "internalType": "bytes",
          "name": "data",
          "type": "bytes"
        }
      ],
      "name": "safeTransferFrom",
      "outputs": [],
      "stateMutability": "nonpayable",
      "type": "function"
    },
    {
      "inputs": [
        {
          "internalType": "address",
          "name": "operator",
          "type": "address"
        },
        {
          "internalType": "bool",
          "name": "approved",
          "type": "bool"
        }
      ],
      "name": "setApprovalForAll",
      "outputs": [],
      "stateMutability": "nonpayable",
      "type": "function"
    },
    {
      "inputs": [
        {
          "internalType": "bytes4",
          "name": "interfaceId",
          "type": "bytes4"
        }
      ],
      "name": "supportsInterface",
      "outputs": [
        {
          "internalType": "bool",
          "name": "",
          "type": "bool"
        }
      ],
      "stateMutability": "view",
      "type": "function",
      "constant": true
    },
    {
      "inputs": [],
      "name": "symbol",
      "outputs": [
        {
          "internalType": "string",
          "name": "",
          "type": "string"
        }
      ],
      "stateMutability": "view",
      "type": "function",
      "constant": true
    },
    {
      "inputs": [
        {
          "internalType": "address",
          "name": "from",
          "type": "address"
        },
        {
          "internalType": "address",
          "name": "to",
          "type": "address"
        },
        {
          "internalType": "uint256",
          "name": "tokenId",
          "type": "uint256"
        }
      ],
      "name": "transferFrom",
      "outputs": [],
      "stateMutability": "nonpayable",
      "type": "function"
    },
    {
      "inputs": [
        {
          "internalType": "address",
          "name": "newOwner",
          "type": "address"
        }
      ],
      "name": "transferOwnership",
      "outputs": [],
      "stateMutability": "nonpayable",
      "type": "function"
    },
    {
      "inputs": [
        {
          "internalType": "address",
          "name": "to",
          "type": "address"
        },
        {
          "internalType": "string",
          "name": "uri",
          "type": "string"
        }
      ],
      "name": "safeMint",
      "outputs": [],
      "stateMutability": "nonpayable",
      "type": "function"
    },
    {
      "inputs": [
        {
          "internalType": "uint256",
          "name": "tokenId",
          "type": "uint256"
        }
      ],
      "name": "revokeCertificate",
      "outputs": [],
      "stateMutability": "nonpayable",
      "type": "function"
    },
    {
      "inputs": [
        {
          "internalType": "uint256",
          "name": "tokenId",
          "type": "uint256"
        }
      ],
      "name": "getTokenIssuer",
      "outputs": [
        {
          "internalType": "address",
          "name": "",
          "type": "address"
        }
      ],
      "stateMutability": "view",
      "type": "function",
      "constant": true
    },
    {
      "inputs": [
        {
          "internalType": "address",
          "name": "Issuer",
          "type": "address"
        }
      ],
      "name": "getTokensIssuedByAddress",
      "outputs": [
        {
          "internalType": "uint256[]",
          "name": "",
          "type": "uint256[]"
        }
      ],
      "stateMutability": "view",
      "type": "function",
      "constant": true
    },
    {
      "inputs": [
        {
          "internalType": "address",
          "name": "tokenOwner",
          "type": "address"
        }
      ],
      "name": "getURIsFromAddress",
      "outputs": [
        {
          "internalType": "string[]",
          "name": "",
          "type": "string[]"
        }
      ],
      "stateMutability": "view",
      "type": "function",
      "constant": true
    },
    {
      "inputs": [
        {
          "internalType": "uint256",
          "name": "tokenId",
          "type": "uint256"
        }
      ],
      "name": "tokenURI",
      "outputs": [
        {
          "internalType": "string",
          "name": "",
          "type": "string"
        }
      ],
      "stateMutability": "view",
      "type": "function",
      "constant": true
    }
  ],
  "bytecode": "0x60806040523480156200001157600080fd5b50604051620044e9380380620044e98339818101604052810190620000379190620002e8565b818181600090816200004a9190620005b8565b5080600190816200005c9190620005b8565b5050506200007f620000736200008760201b60201c565b6200008f60201b60201c565b50506200069f565b600033905090565b6000600760009054906101000a900473ffffffffffffffffffffffffffffffffffffffff16905081600760006101000a81548173ffffffffffffffffffffffffffffffffffffffff021916908373ffffffffffffffffffffffffffffffffffffffff1602179055508173ffffffffffffffffffffffffffffffffffffffff168173ffffffffffffffffffffffffffffffffffffffff167f8be0079c531659141344cd1fd0a4f28419497f9722a3daafe3b4186f6b6457e060405160405180910390a35050565b6000604051905090565b600080fd5b600080fd5b600080fd5b600080fd5b6000601f19601f8301169050919050565b7f4e487b7100000000000000000000000000000000000000000000000000000000600052604160045260246000fd5b620001be8262000173565b810181811067ffffffffffffffff82111715620001e057620001df62000184565b5b80604052505050565b6000620001f562000155565b9050620002038282620001b3565b919050565b600067ffffffffffffffff82111562000226576200022562000184565b5b620002318262000173565b9050602081019050919050565b60005b838110156200025e57808201518184015260208101905062000241565b60008484015250505050565b6000620002816200027b8462000208565b620001e9565b905082815260208101848484011115620002a0576200029f6200016e565b5b620002ad8482856200023e565b509392505050565b600082601f830112620002cd57620002cc62000169565b5b8151620002df8482602086016200026a565b91505092915050565b600080604083850312156200030257620003016200015f565b5b600083015167ffffffffffffffff81111562000323576200032262000164565b5b6200033185828601620002b5565b925050602083015167ffffffffffffffff81111562000355576200035462000164565b5b6200036385828601620002b5565b9150509250929050565b600081519050919050565b7f4e487b7100000000000000000000000000000000000000000000000000000000600052602260045260246000fd5b60006002820490506001821680620003c057607f821691505b602082108103620003d657620003d562000378565b5b50919050565b60008190508160005260206000209050919050565b60006020601f8301049050919050565b600082821b905092915050565b600060088302620004407fffffffffffffffffffffffffffffffffffffffffffffffffffffffffffffffff8262000401565b6200044c868362000401565b95508019841693508086168417925050509392505050565b6000819050919050565b6000819050919050565b600062000499620004936200048d8462000464565b6200046e565b62000464565b9050919050565b6000819050919050565b620004b58362000478565b620004cd620004c482620004a0565b8484546200040e565b825550505050565b600090565b620004e4620004d5565b620004f1818484620004aa565b505050565b5b8181101562000519576200050d600082620004da565b600181019050620004f7565b5050565b601f82111562000568576200053281620003dc565b6200053d84620003f1565b810160208510156200054d578190505b620005656200055c85620003f1565b830182620004f6565b50505b505050565b600082821c905092915050565b60006200058d600019846008026200056d565b1980831691505092915050565b6000620005a883836200057a565b9150826002028217905092915050565b620005c3826200036d565b67ffffffffffffffff811115620005df57620005de62000184565b5b620005eb8254620003a7565b620005f88282856200051d565b600060209050601f8311600181146200063057600084156200061b578287015190505b6200062785826200059a565b86555062000697565b601f1984166200064086620003dc565b60005b828110156200066a5784890151825560018201915060208501945060208101905062000643565b868310156200068a578489015162000686601f8916826200057a565b8355505b6001600288020188555050505b505050505050565b613e3a80620006af6000396000f3fe608060405234801561001057600080fd5b50600436106101375760003560e01c806370a08231116100b8578063b88d4fde1161007c578063b88d4fde1461034c578063bec6501514610368578063c87b56dd14610398578063d204c45e146103c8578063e985e9c5146103e4578063f2fde38b1461041457610137565b806370a08231146102ba578063715018a6146102ea5780638da5cb5b146102f457806395d89b4114610312578063a22cb4651461033057610137565b806323b872dd116100ff57806323b872dd146101f257806342842e0e1461020e5780634e2488901461022a5780635e7844eb1461025a5780636352211e1461028a57610137565b806301ffc9a71461013c57806306f5497e1461016c57806306fdde0314610188578063081812fc146101a6578063095ea7b3146101d6575b600080fd5b6101566004803603810190610151919061275a565b610430565b60405161016391906127a2565b60405180910390f35b610186600480360381019061018191906127f3565b610512565b005b6101906109f5565b60405161019d91906128b0565b60405180910390f35b6101c060048036038101906101bb91906127f3565b610a87565b6040516101cd9190612913565b60405180910390f35b6101f060048036038101906101eb919061295a565b610acd565b005b61020c6004803603810190610207919061299a565b610be4565b005b6102286004803603810190610223919061299a565b610c44565b005b610244600480360381019061023f91906129ed565b610c64565b6040516102519190612b26565b60405180910390f35b610274600480360381019061026f91906129ed565b610de6565b6040516102819190612c06565b60405180910390f35b6102a4600480360381019061029f91906127f3565b610e7d565b6040516102b19190612913565b60405180910390f35b6102d460048036038101906102cf91906129ed565b610f2e565b6040516102e19190612c37565b60405180910390f35b6102f2610fe5565b005b6102fc610ff9565b6040516103099190612913565b60405180910390f35b61031a611023565b60405161032791906128b0565b60405180910390f35b61034a60048036038101906103459190612c7e565b6110b5565b005b61036660048036038101906103619190612df3565b6110cb565b005b610382600480360381019061037d91906127f3565b61112d565b60405161038f9190612913565b60405180910390f35b6103b260048036038101906103ad91906127f3565b61116a565b6040516103bf91906128b0565b60405180910390f35b6103e260048036038101906103dd9190612f17565b61117c565b005b6103fe60048036038101906103f99190612f73565b6112cb565b60405161040b91906127a2565b60405180910390f35b61042e600480360381019061042991906129ed565b61135f565b005b60007f80ac58cd000000000000000000000000000000000000000000000000000000007bffffffffffffffffffffffffffffffffffffffffffffffffffffffff1916827bffffffffffffffffffffffffffffffffffffffffffffffffffffffff191614806104fb57507f5b5e139f000000000000000000000000000000000000000000000000000000007bffffffffffffffffffffffffffffffffffffffffffffffffffffffff1916827bffffffffffffffffffffffffffffffffffffffffffffffffffffffff1916145b8061050b575061050a826113e2565b5b9050919050565b61051b8161144c565b6000600b600083815260200190815260200160002060009054906101000a900473ffffffffffffffffffffffffffffffffffffffff169050600b600083815260200190815260200160002060006101000a81549073ffffffffffffffffffffffffffffffffffffffff021916905560005b600c60008373ffffffffffffffffffffffffffffffffffffffff1673ffffffffffffffffffffffffffffffffffffffff168152602001908152602001600020805490508110156107555782600c60008473ffffffffffffffffffffffffffffffffffffffff1673ffffffffffffffffffffffffffffffffffffffff168152602001908152602001600020828154811061062857610627612fb3565b5b90600052602060002001540361074257600c60008373ffffffffffffffffffffffffffffffffffffffff1673ffffffffffffffffffffffffffffffffffffffff1681526020019081526020016000206001600c60008573ffffffffffffffffffffffffffffffffffffffff1673ffffffffffffffffffffffffffffffffffffffff168152602001908152602001600020805490506106c69190613011565b815481106106d7576106d6612fb3565b5b9060005260206000200154600c60008473ffffffffffffffffffffffffffffffffffffffff1673ffffffffffffffffffffffffffffffffffffffff168152602001908152602001600020828154811061073357610732612fb3565b5b90600052602060002001819055505b808061074d90613045565b91505061058c565b50600c60008273ffffffffffffffffffffffffffffffffffffffff1673ffffffffffffffffffffffffffffffffffffffff1681526020019081526020016000208054806107a5576107a461308d565b5b6001900381819060005260206000200160009055905560005b600a60003373ffffffffffffffffffffffffffffffffffffffff1673ffffffffffffffffffffffffffffffffffffffff1681526020019081526020016000208054905081101561098b5782600a60003373ffffffffffffffffffffffffffffffffffffffff1673ffffffffffffffffffffffffffffffffffffffff168152602001908152602001600020828154811061085a57610859612fb3565b5b90600052602060002001540361097857600a60003373ffffffffffffffffffffffffffffffffffffffff1673ffffffffffffffffffffffffffffffffffffffff1681526020019081526020016000206001600a60003373ffffffffffffffffffffffffffffffffffffffff1673ffffffffffffffffffffffffffffffffffffffff168152602001908152602001600020805490506108f89190613011565b8154811061090957610908612fb3565b5b9060005260206000200154600a60003373ffffffffffffffffffffffffffffffffffffffff1673ffffffffffffffffffffffffffffffffffffffff168152602001908152602001600020828154811061096557610964612fb3565b5b906000526020600020018190555061098b565b808061098390613045565b9150506107be565b50600a60003373ffffffffffffffffffffffffffffffffffffffff1673ffffffffffffffffffffffffffffffffffffffff1681526020019081526020016000208054806109db576109da61308d565b5b600190038181906000526020600020016000905590555050565b606060008054610a04906130eb565b80601f0160208091040260200160405190810160405280929190818152602001828054610a30906130eb565b8015610a7d5780601f10610a5257610100808354040283529160200191610a7d565b820191906000526020600020905b815481529060010190602001808311610a6057829003601f168201915b5050505050905090565b6000610a9282611458565b6004600083815260200190815260200160002060009054906101000a900473ffffffffffffffffffffffffffffffffffffffff169050919050565b6000610ad882610e7d565b90508073ffffffffffffffffffffffffffffffffffffffff168373ffffffffffffffffffffffffffffffffffffffff1603610b48576040517f08c379a0000000000000000000000000000000000000000000000000000000008152600401610b3f9061318e565b60405180910390fd5b8073ffffffffffffffffffffffffffffffffffffffff16610b676114a3565b73ffffffffffffffffffffffffffffffffffffffff161480610b965750610b9581610b906114a3565b6112cb565b5b610bd5576040517f08c379a0000000000000000000000000000000000000000000000000000000008152600401610bcc90613220565b60405180910390fd5b610bdf83836114ab565b505050565b610bf5610bef6114a3565b82611564565b610c34576040517f08c379a0000000000000000000000000000000000000000000000000000000008152600401610c2b906132b2565b60405180910390fd5b610c3f8383836115f9565b505050565b610c5f838383604051806020016040528060008152506110cb565b505050565b60606000600a60008473ffffffffffffffffffffffffffffffffffffffff1673ffffffffffffffffffffffffffffffffffffffff1681526020019081526020016000208054905067ffffffffffffffff811115610cc457610cc3612cc8565b5b604051908082528060200260200182016040528015610cf757816020015b6060815260200190600190039081610ce25790505b50905060005b600a60008573ffffffffffffffffffffffffffffffffffffffff1673ffffffffffffffffffffffffffffffffffffffff16815260200190815260200160002080549050811015610ddc57610dab600a60008673ffffffffffffffffffffffffffffffffffffffff1673ffffffffffffffffffffffffffffffffffffffff1681526020019081526020016000208281548110610d9b57610d9a612fb3565b5b906000526020600020015461116a565b828281518110610dbe57610dbd612fb3565b5b60200260200101819052508080610dd490613045565b915050610cfd565b5080915050919050565b6060600c60008373ffffffffffffffffffffffffffffffffffffffff1673ffffffffffffffffffffffffffffffffffffffff168152602001908152602001600020805480602002602001604051908101604052809291908181526020018280548015610e7157602002820191906000526020600020905b815481526020019060010190808311610e5d575b50505050509050919050565b6000806002600084815260200190815260200160002060009054906101000a900473ffffffffffffffffffffffffffffffffffffffff169050600073ffffffffffffffffffffffffffffffffffffffff168173ffffffffffffffffffffffffffffffffffffffff1603610f25576040517f08c379a0000000000000000000000000000000000000000000000000000000008152600401610f1c9061331e565b60405180910390fd5b80915050919050565b60008073ffffffffffffffffffffffffffffffffffffffff168273ffffffffffffffffffffffffffffffffffffffff1603610f9e576040517f08c379a0000000000000000000000000000000000000000000000000000000008152600401610f95906133b0565b60405180910390fd5b600360008373ffffffffffffffffffffffffffffffffffffffff1673ffffffffffffffffffffffffffffffffffffffff168152602001908152602001600020549050919050565b610fed61185f565b610ff760006118dd565b565b6000600760009054906101000a900473ffffffffffffffffffffffffffffffffffffffff16905090565b606060018054611032906130eb565b80601f016020809104026020016040519081016040528092919081815260200182805461105e906130eb565b80156110ab5780601f10611080576101008083540402835291602001916110ab565b820191906000526020600020905b81548152906001019060200180831161108e57829003601f168201915b5050505050905090565b6110c76110c06114a3565b83836119a3565b5050565b6110dc6110d66114a3565b83611564565b61111b576040517f08c379a0000000000000000000000000000000000000000000000000000000008152600401611112906132b2565b60405180910390fd5b61112784848484611b0f565b50505050565b6000600b600083815260200190815260200160002060009054906101000a900473ffffffffffffffffffffffffffffffffffffffff169050919050565b606061117582611b6b565b9050919050565b60006111886008611c7d565b90506111946008611c8b565b61119e8382611ca1565b6111a88183611cbf565b33600b600083815260200190815260200160002060006101000a81548173ffffffffffffffffffffffffffffffffffffffff021916908373ffffffffffffffffffffffffffffffffffffffff160217905550600c60003373ffffffffffffffffffffffffffffffffffffffff1673ffffffffffffffffffffffffffffffffffffffff168152602001908152602001600020819080600181540180825580915050600190039060005260206000200160009091909190915055600a60008473ffffffffffffffffffffffffffffffffffffffff1673ffffffffffffffffffffffffffffffffffffffff168152602001908152602001600020819080600181540180825580915050600190039060005260206000200160009091909190915055505050565b6000600560008473ffffffffffffffffffffffffffffffffffffffff1673ffffffffffffffffffffffffffffffffffffffff16815260200190815260200160002060008373ffffffffffffffffffffffffffffffffffffffff1673ffffffffffffffffffffffffffffffffffffffff16815260200190815260200160002060009054906101000a900460ff16905092915050565b61136761185f565b600073ffffffffffffffffffffffffffffffffffffffff168173ffffffffffffffffffffffffffffffffffffffff16036113d6576040517f08c379a00000000000000000000000000000000000000000000000000000000081526004016113cd90613442565b60405180910390fd5b6113df816118dd565b50565b60007f01ffc9a7000000000000000000000000000000000000000000000000000000007bffffffffffffffffffffffffffffffffffffffffffffffffffffffff1916827bffffffffffffffffffffffffffffffffffffffffffffffffffffffff1916149050919050565b61145581611d2c565b50565b61146181611d7f565b6114a0576040517f08c379a00000000000000000000000000000000000000000000000000000000081526004016114979061331e565b60405180910390fd5b50565b600033905090565b816004600083815260200190815260200160002060006101000a81548173ffffffffffffffffffffffffffffffffffffffff021916908373ffffffffffffffffffffffffffffffffffffffff160217905550808273ffffffffffffffffffffffffffffffffffffffff1661151e83610e7d565b73ffffffffffffffffffffffffffffffffffffffff167f8c5be1e5ebec7d5bd14f71427d1e84f3dd0314c0f7b2291e5b200ac8c7c3b92560405160405180910390a45050565b60008061157083610e7d565b90508073ffffffffffffffffffffffffffffffffffffffff168473ffffffffffffffffffffffffffffffffffffffff1614806115b257506115b181856112cb565b5b806115f057508373ffffffffffffffffffffffffffffffffffffffff166115d884610a87565b73ffffffffffffffffffffffffffffffffffffffff16145b91505092915050565b8273ffffffffffffffffffffffffffffffffffffffff1661161982610e7d565b73ffffffffffffffffffffffffffffffffffffffff161461166f576040517f08c379a0000000000000000000000000000000000000000000000000000000008152600401611666906134d4565b60405180910390fd5b600073ffffffffffffffffffffffffffffffffffffffff168273ffffffffffffffffffffffffffffffffffffffff16036116de576040517f08c379a00000000000000000000000000000000000000000000000000000000081526004016116d590613566565b60405180910390fd5b6116e9838383611deb565b6116f46000826114ab565b6001600360008573ffffffffffffffffffffffffffffffffffffffff1673ffffffffffffffffffffffffffffffffffffffff16815260200190815260200160002060008282546117449190613011565b925050819055506001600360008473ffffffffffffffffffffffffffffffffffffffff1673ffffffffffffffffffffffffffffffffffffffff168152602001908152602001600020600082825461179b9190613586565b92505081905550816002600083815260200190815260200160002060006101000a81548173ffffffffffffffffffffffffffffffffffffffff021916908373ffffffffffffffffffffffffffffffffffffffff160217905550808273ffffffffffffffffffffffffffffffffffffffff168473ffffffffffffffffffffffffffffffffffffffff167fddf252ad1be2c89b69c2b068fc378daa952ba7f163c4a11628f55a4df523b3ef60405160405180910390a461185a838383611fad565b505050565b6118676114a3565b73ffffffffffffffffffffffffffffffffffffffff16611885610ff9565b73ffffffffffffffffffffffffffffffffffffffff16146118db576040517f08c379a00000000000000000000000000000000000000000000000000000000081526004016118d290613606565b60405180910390fd5b565b6000600760009054906101000a900473ffffffffffffffffffffffffffffffffffffffff16905081600760006101000a81548173ffffffffffffffffffffffffffffffffffffffff021916908373ffffffffffffffffffffffffffffffffffffffff1602179055508173ffffffffffffffffffffffffffffffffffffffff168173ffffffffffffffffffffffffffffffffffffffff167f8be0079c531659141344cd1fd0a4f28419497f9722a3daafe3b4186f6b6457e060405160405180910390a35050565b8173ffffffffffffffffffffffffffffffffffffffff168373ffffffffffffffffffffffffffffffffffffffff1603611a11576040517f08c379a0000000000000000000000000000000000000000000000000000000008152600401611a0890613672565b60405180910390fd5b80600560008573ffffffffffffffffffffffffffffffffffffffff1673ffffffffffffffffffffffffffffffffffffffff16815260200190815260200160002060008473ffffffffffffffffffffffffffffffffffffffff1673ffffffffffffffffffffffffffffffffffffffff16815260200190815260200160002060006101000a81548160ff0219169083151502179055508173ffffffffffffffffffffffffffffffffffffffff168373ffffffffffffffffffffffffffffffffffffffff167f17307eab39ab6107e8899845ad3d59bd9653f200f220920489ca2b5937696c3183604051611b0291906127a2565b60405180910390a3505050565b611b1a8484846115f9565b611b2684848484611fb2565b611b65576040517f08c379a0000000000000000000000000000000000000000000000000000000008152600401611b5c90613704565b60405180910390fd5b50505050565b6060611b7682611458565b6000600660008481526020019081526020016000208054611b96906130eb565b80601f0160208091040260200160405190810160405280929190818152602001828054611bc2906130eb565b8015611c0f5780601f10611be457610100808354040283529160200191611c0f565b820191906000526020600020905b815481529060010190602001808311611bf257829003601f168201915b505050505090506000611c20612139565b90506000815103611c35578192505050611c78565b600082511115611c6a578082604051602001611c52929190613760565b60405160208183030381529060405292505050611c78565b611c7384612150565b925050505b919050565b600081600001549050919050565b6001816000016000828254019250508190555050565b611cbb8282604051806020016040528060008152506121b8565b5050565b611cc882611d7f565b611d07576040517f08c379a0000000000000000000000000000000000000000000000000000000008152600401611cfe906137f6565b60405180910390fd5b80600660008481526020019081526020016000209081611d2791906139c2565b505050565b611d3581612213565b6000600660008381526020019081526020016000208054611d55906130eb565b905014611d7c57600660008281526020019081526020016000206000611d7b9190612691565b5b50565b60008073ffffffffffffffffffffffffffffffffffffffff166002600084815260200190815260200160002060009054906101000a900473ffffffffffffffffffffffffffffffffffffffff1673ffffffffffffffffffffffffffffffffffffffff1614159050919050565b600073ffffffffffffffffffffffffffffffffffffffff168373ffffffffffffffffffffffffffffffffffffffff161480611e525750600073ffffffffffffffffffffffffffffffffffffffff168273ffffffffffffffffffffffffffffffffffffffff16145b611e91576040517f08c379a0000000000000000000000000000000000000000000000000000000008152600401611e8890613ae0565b60405180910390fd5b600073ffffffffffffffffffffffffffffffffffffffff168273ffffffffffffffffffffffffffffffffffffffff1603611f9d573373ffffffffffffffffffffffffffffffffffffffff16600b600083815260200190815260200160002060009054906101000a900473ffffffffffffffffffffffffffffffffffffffff1673ffffffffffffffffffffffffffffffffffffffff161480611f5d57503373ffffffffffffffffffffffffffffffffffffffff168373ffffffffffffffffffffffffffffffffffffffff16145b611f9c576040517f08c379a0000000000000000000000000000000000000000000000000000000008152600401611f9390613b98565b60405180910390fd5b5b611fa8838383612330565b505050565b505050565b6000611fd38473ffffffffffffffffffffffffffffffffffffffff16612335565b1561212c578373ffffffffffffffffffffffffffffffffffffffff1663150b7a02611ffc6114a3565b8786866040518563ffffffff1660e01b815260040161201e9493929190613c0d565b6020604051808303816000875af192505050801561205a57506040513d601f19601f820116820180604052508101906120579190613c6e565b60015b6120dc573d806000811461208a576040519150601f19603f3d011682016040523d82523d6000602084013e61208f565b606091505b5060008151036120d4576040517f08c379a00000000000000000000000000000000000000000000000000000000081526004016120cb90613704565b60405180910390fd5b805181602001fd5b63150b7a0260e01b7bffffffffffffffffffffffffffffffffffffffffffffffffffffffff1916817bffffffffffffffffffffffffffffffffffffffffffffffffffffffff191614915050612131565b600190505b949350505050565b606060405180602001604052806000815250905090565b606061215b82611458565b6000612165612139565b9050600081511161218557604051806020016040528060008152506121b0565b8061218f84612358565b6040516020016121a0929190613760565b6040516020818303038152906040525b915050919050565b6121c283836124b8565b6121cf6000848484611fb2565b61220e576040517f08c379a000000000000000000000000000000000000000000000000000000000815260040161220590613704565b60405180910390fd5b505050565b600061221e82610e7d565b905061222c81600084611deb565b6122376000836114ab565b6001600360008373ffffffffffffffffffffffffffffffffffffffff1673ffffffffffffffffffffffffffffffffffffffff16815260200190815260200160002060008282546122879190613011565b925050819055506002600083815260200190815260200160002060006101000a81549073ffffffffffffffffffffffffffffffffffffffff021916905581600073ffffffffffffffffffffffffffffffffffffffff168273ffffffffffffffffffffffffffffffffffffffff167fddf252ad1be2c89b69c2b068fc378daa952ba7f163c4a11628f55a4df523b3ef60405160405180910390a461232c81600084611fad565b5050565b505050565b6000808273ffffffffffffffffffffffffffffffffffffffff163b119050919050565b60606000820361239f576040518060400160405280600181526020017f300000000000000000000000000000000000000000000000000000000000000081525090506124b3565b600082905060005b600082146123d15780806123ba90613045565b915050600a826123ca9190613cca565b91506123a7565b60008167ffffffffffffffff8111156123ed576123ec612cc8565b5b6040519080825280601f01601f19166020018201604052801561241f5781602001600182028036833780820191505090505b5090505b600085146124ac576001826124389190613011565b9150600a856124479190613cfb565b60306124539190613586565b60f81b81838151811061246957612468612fb3565b5b60200101907effffffffffffffffffffffffffffffffffffffffffffffffffffffffffffff1916908160001a905350600a856124a59190613cca565b9450612423565b8093505050505b919050565b600073ffffffffffffffffffffffffffffffffffffffff168273ffffffffffffffffffffffffffffffffffffffff1603612527576040517f08c379a000000000000000000000000000000000000000000000000000000000815260040161251e90613d78565b60405180910390fd5b61253081611d7f565b15612570576040517f08c379a000000000000000000000000000000000000000000000000000000000815260040161256790613de4565b60405180910390fd5b61257c60008383611deb565b6001600360008473ffffffffffffffffffffffffffffffffffffffff1673ffffffffffffffffffffffffffffffffffffffff16815260200190815260200160002060008282546125cc9190613586565b92505081905550816002600083815260200190815260200160002060006101000a81548173ffffffffffffffffffffffffffffffffffffffff021916908373ffffffffffffffffffffffffffffffffffffffff160217905550808273ffffffffffffffffffffffffffffffffffffffff16600073ffffffffffffffffffffffffffffffffffffffff167fddf252ad1be2c89b69c2b068fc378daa952ba7f163c4a11628f55a4df523b3ef60405160405180910390a461268d60008383611fad565b5050565b50805461269d906130eb565b6000825580601f106126af57506126ce565b601f0160209004906000526020600020908101906126cd91906126d1565b5b50565b5b808211156126ea5760008160009055506001016126d2565b5090565b6000604051905090565b600080fd5b600080fd5b60007fffffffff0000000000000000000000000000000000000000000000000000000082169050919050565b61273781612702565b811461274257600080fd5b50565b6000813590506127548161272e565b92915050565b6000602082840312156127705761276f6126f8565b5b600061277e84828501612745565b91505092915050565b60008115159050919050565b61279c81612787565b82525050565b60006020820190506127b76000830184612793565b92915050565b6000819050919050565b6127d0816127bd565b81146127db57600080fd5b50565b6000813590506127ed816127c7565b92915050565b600060208284031215612809576128086126f8565b5b6000612817848285016127de565b91505092915050565b600081519050919050565b600082825260208201905092915050565b60005b8381101561285a57808201518184015260208101905061283f565b60008484015250505050565b6000601f19601f8301169050919050565b600061288282612820565b61288c818561282b565b935061289c81856020860161283c565b6128a581612866565b840191505092915050565b600060208201905081810360008301526128ca8184612877565b905092915050565b600073ffffffffffffffffffffffffffffffffffffffff82169050919050565b60006128fd826128d2565b9050919050565b61290d816128f2565b82525050565b60006020820190506129286000830184612904565b92915050565b612937816128f2565b811461294257600080fd5b50565b6000813590506129548161292e565b92915050565b60008060408385031215612971576129706126f8565b5b600061297f85828601612945565b9250506020612990858286016127de565b9150509250929050565b6000806000606084860312156129b3576129b26126f8565b5b60006129c186828701612945565b93505060206129d286828701612945565b92505060406129e3868287016127de565b9150509250925092565b600060208284031215612a0357612a026126f8565b5b6000612a1184828501612945565b91505092915050565b600081519050919050565b600082825260208201905092915050565b6000819050602082019050919050565b600082825260208201905092915050565b6000612a6282612820565b612a6c8185612a46565b9350612a7c81856020860161283c565b612a8581612866565b840191505092915050565b6000612a9c8383612a57565b905092915050565b6000602082019050919050565b6000612abc82612a1a565b612ac68185612a25565b935083602082028501612ad885612a36565b8060005b85811015612b145784840389528151612af58582612a90565b9450612b0083612aa4565b925060208a01995050600181019050612adc565b50829750879550505050505092915050565b60006020820190508181036000830152612b408184612ab1565b905092915050565b600081519050919050565b600082825260208201905092915050565b6000819050602082019050919050565b612b7d816127bd565b82525050565b6000612b8f8383612b74565b60208301905092915050565b6000602082019050919050565b6000612bb382612b48565b612bbd8185612b53565b9350612bc883612b64565b8060005b83811015612bf9578151612be08882612b83565b9750612beb83612b9b565b925050600181019050612bcc565b5085935050505092915050565b60006020820190508181036000830152612c208184612ba8565b905092915050565b612c31816127bd565b82525050565b6000602082019050612c4c6000830184612c28565b92915050565b612c5b81612787565b8114612c6657600080fd5b50565b600081359050612c7881612c52565b92915050565b60008060408385031215612c9557612c946126f8565b5b6000612ca385828601612945565b9250506020612cb485828601612c69565b9150509250929050565b600080fd5b600080fd5b7f4e487b7100000000000000000000000000000000000000000000000000000000600052604160045260246000fd5b612d0082612866565b810181811067ffffffffffffffff82111715612d1f57612d1e612cc8565b5b80604052505050565b6000612d326126ee565b9050612d3e8282612cf7565b919050565b600067ffffffffffffffff821115612d5e57612d5d612cc8565b5b612d6782612866565b9050602081019050919050565b82818337600083830152505050565b6000612d96612d9184612d43565b612d28565b905082815260208101848484011115612db257612db1612cc3565b5b612dbd848285612d74565b509392505050565b600082601f830112612dda57612dd9612cbe565b5b8135612dea848260208601612d83565b91505092915050565b60008060008060808587031215612e0d57612e0c6126f8565b5b6000612e1b87828801612945565b9450506020612e2c87828801612945565b9350506040612e3d878288016127de565b925050606085013567ffffffffffffffff811115612e5e57612e5d6126fd565b5b612e6a87828801612dc5565b91505092959194509250565b600067ffffffffffffffff821115612e9157612e90612cc8565b5b612e9a82612866565b9050602081019050919050565b6000612eba612eb584612e76565b612d28565b905082815260208101848484011115612ed657612ed5612cc3565b5b612ee1848285612d74565b509392505050565b600082601f830112612efe57612efd612cbe565b5b8135612f0e848260208601612ea7565b91505092915050565b60008060408385031215612f2e57612f2d6126f8565b5b6000612f3c85828601612945565b925050602083013567ffffffffffffffff811115612f5d57612f5c6126fd565b5b612f6985828601612ee9565b9150509250929050565b60008060408385031215612f8a57612f896126f8565b5b6000612f9885828601612945565b9250506020612fa985828601612945565b9150509250929050565b7f4e487b7100000000000000000000000000000000000000000000000000000000600052603260045260246000fd5b7f4e487b7100000000000000000000000000000000000000000000000000000000600052601160045260246000fd5b600061301c826127bd565b9150613027836127bd565b925082820390508181111561303f5761303e612fe2565b5b92915050565b6000613050826127bd565b91507fffffffffffffffffffffffffffffffffffffffffffffffffffffffffffffffff820361308257613081612fe2565b5b600182019050919050565b7f4e487b7100000000000000000000000000000000000000000000000000000000600052603160045260246000fd5b7f4e487b7100000000000000000000000000000000000000000000000000000000600052602260045260246000fd5b6000600282049050600182168061310357607f821691505b602082108103613116576131156130bc565b5b50919050565b7f4552433732313a20617070726f76616c20746f2063757272656e74206f776e6560008201527f7200000000000000000000000000000000000000000000000000000000000000602082015250565b600061317860218361282b565b91506131838261311c565b604082019050919050565b600060208201905081810360008301526131a78161316b565b9050919050565b7f4552433732313a20617070726f76652063616c6c6572206973206e6f7420746f60008201527f6b656e206f776e6572206e6f7220617070726f76656420666f7220616c6c0000602082015250565b600061320a603e8361282b565b9150613215826131ae565b604082019050919050565b60006020820190508181036000830152613239816131fd565b9050919050565b7f4552433732313a2063616c6c6572206973206e6f7420746f6b656e206f776e6560008201527f72206e6f7220617070726f766564000000000000000000000000000000000000602082015250565b600061329c602e8361282b565b91506132a782613240565b604082019050919050565b600060208201905081810360008301526132cb8161328f565b9050919050565b7f4552433732313a20696e76616c696420746f6b656e2049440000000000000000600082015250565b600061330860188361282b565b9150613313826132d2565b602082019050919050565b60006020820190508181036000830152613337816132fb565b9050919050565b7f4552433732313a2061646472657373207a65726f206973206e6f74206120766160008201527f6c6964206f776e65720000000000000000000000000000000000000000000000602082015250565b600061339a60298361282b565b91506133a58261333e565b604082019050919050565b600060208201905081810360008301526133c98161338d565b9050919050565b7f4f776e61626c653a206e6577206f776e657220697320746865207a65726f206160008201527f6464726573730000000000000000000000000000000000000000000000000000602082015250565b600061342c60268361282b565b9150613437826133d0565b604082019050919050565b6000602082019050818103600083015261345b8161341f565b9050919050565b7f4552433732313a207472616e736665722066726f6d20696e636f72726563742060008201527f6f776e6572000000000000000000000000000000000000000000000000000000602082015250565b60006134be60258361282b565b91506134c982613462565b604082019050919050565b600060208201905081810360008301526134ed816134b1565b9050919050565b7f4552433732313a207472616e7366657220746f20746865207a65726f2061646460008201527f7265737300000000000000000000000000000000000000000000000000000000602082015250565b600061355060248361282b565b915061355b826134f4565b604082019050919050565b6000602082019050818103600083015261357f81613543565b9050919050565b6000613591826127bd565b915061359c836127bd565b92508282019050808211156135b4576135b3612fe2565b5b92915050565b7f4f776e61626c653a2063616c6c6572206973206e6f7420746865206f776e6572600082015250565b60006135f060208361282b565b91506135fb826135ba565b602082019050919050565b6000602082019050818103600083015261361f816135e3565b9050919050565b7f4552433732313a20617070726f766520746f2063616c6c657200000000000000600082015250565b600061365c60198361282b565b915061366782613626565b602082019050919050565b6000602082019050818103600083015261368b8161364f565b9050919050565b7f4552433732313a207472616e7366657220746f206e6f6e20455243373231526560008201527f63656976657220696d706c656d656e7465720000000000000000000000000000602082015250565b60006136ee60328361282b565b91506136f982613692565b604082019050919050565b6000602082019050818103600083015261371d816136e1565b9050919050565b600081905092915050565b600061373a82612820565b6137448185613724565b935061375481856020860161283c565b80840191505092915050565b600061376c828561372f565b9150613778828461372f565b91508190509392505050565b7f45524337323155524953746f726167653a2055524920736574206f66206e6f6e60008201527f6578697374656e7420746f6b656e000000000000000000000000000000000000602082015250565b60006137e0602e8361282b565b91506137eb82613784565b604082019050919050565b6000602082019050818103600083015261380f816137d3565b9050919050565b60008190508160005260206000209050919050565b60006020601f8301049050919050565b600082821b905092915050565b6000600883026138787fffffffffffffffffffffffffffffffffffffffffffffffffffffffffffffffff8261383b565b613882868361383b565b95508019841693508086168417925050509392505050565b6000819050919050565b60006138bf6138ba6138b5846127bd565b61389a565b6127bd565b9050919050565b6000819050919050565b6138d9836138a4565b6138ed6138e5826138c6565b848454613848565b825550505050565b600090565b6139026138f5565b61390d8184846138d0565b505050565b5b81811015613931576139266000826138fa565b600181019050613913565b5050565b601f8211156139765761394781613816565b6139508461382b565b8101602085101561395f578190505b61397361396b8561382b565b830182613912565b50505b505050565b600082821c905092915050565b60006139996000198460080261397b565b1980831691505092915050565b60006139b28383613988565b9150826002028217905092915050565b6139cb82612820565b67ffffffffffffffff8111156139e4576139e3612cc8565b5b6139ee82546130eb565b6139f9828285613935565b600060209050601f831160018114613a2c5760008415613a1a578287015190505b613a2485826139a6565b865550613a8c565b601f198416613a3a86613816565b60005b82811015613a6257848901518255600182019150602085019450602081019050613a3d565b86831015613a7f5784890151613a7b601f891682613988565b8355505b6001600288020188555050505b505050505050565b7f4572723a20746f6b656e207472616e7366657220697320424c4f434b45440000600082015250565b6000613aca601e8361282b565b9150613ad582613a94565b602082019050919050565b60006020820190508181036000830152613af981613abd565b9050919050565b7f6f6e6c792074686520697373756572206f66207468652063657274696669636160008201527f7465206f7220746865206f776e65722063616e206275726e2074686520746f6b60208201527f656e2e0000000000000000000000000000000000000000000000000000000000604082015250565b6000613b8260438361282b565b9150613b8d82613b00565b606082019050919050565b60006020820190508181036000830152613bb181613b75565b9050919050565b600081519050919050565b600082825260208201905092915050565b6000613bdf82613bb8565b613be98185613bc3565b9350613bf981856020860161283c565b613c0281612866565b840191505092915050565b6000608082019050613c226000830187612904565b613c2f6020830186612904565b613c3c6040830185612c28565b8181036060830152613c4e8184613bd4565b905095945050505050565b600081519050613c688161272e565b92915050565b600060208284031215613c8457613c836126f8565b5b6000613c9284828501613c59565b91505092915050565b7f4e487b7100000000000000000000000000000000000000000000000000000000600052601260045260246000fd5b6000613cd5826127bd565b9150613ce0836127bd565b925082613cf057613cef613c9b565b5b828204905092915050565b6000613d06826127bd565b9150613d11836127bd565b925082613d2157613d20613c9b565b5b828206905092915050565b7f4552433732313a206d696e7420746f20746865207a65726f2061646472657373600082015250565b6000613d6260208361282b565b9150613d6d82613d2c565b602082019050919050565b60006020820190508181036000830152613d9181613d55565b9050919050565b7f4552433732313a20746f6b656e20616c7265616479206d696e74656400000000600082015250565b6000613dce601c8361282b565b9150613dd982613d98565b602082019050919050565b60006020820190508181036000830152613dfd81613dc1565b905091905056fea2646970667358221220ba4aeaa5e7696f6d21d02569b08b11b2ebfa5bf62fecb618de8fe2c73359f1f264736f6c63430008110033",
  "immutableReferences": {},
  "source": "// SPDX-License-Identifier: MIT\npragma solidity ^0.8.4;\n\nimport \"@openzeppelin/contracts/token/ERC721/ERC721.sol\";\nimport \"@openzeppelin/contracts/token/ERC721/extensions/ERC721URIStorage.sol\";\nimport \"@openzeppelin/contracts/access/Ownable.sol\";\nimport \"@openzeppelin/contracts/utils/Counters.sol\";\n\ncontract SoulBoundToken is ERC721, ERC721URIStorage, Ownable {\n    using Counters for Counters.Counter;\n\n    Counters.Counter private _tokenIdCounter;\n    string private _baseTokenURI;\n\n    mapping(address => uint256[]) private _userInfo;\n\n    mapping(uint256 => address) private _tokenIssuer;\n\n    mapping(address => uint256[]) private _issuedTokens;\n\n    constructor(string memory name_, string memory symbol_)\n        ERC721(name_, symbol_)\n    {}\n\n    function safeMint(address to, string memory uri) public {\n        uint256 tokenId = _tokenIdCounter.current();\n        _tokenIdCounter.increment();\n        _safeMint(to, tokenId);\n        _setTokenURI(tokenId, uri);\n        _tokenIssuer[tokenId] = msg.sender;\n        _issuedTokens[msg.sender].push(tokenId);\n        _userInfo[to].push(tokenId);\n    }\n\n    function _beforeTokenTransfer(\n        address from,\n        address to,\n        uint256 tokenId\n    ) internal virtual override {\n        require(\n            from == address(0) || to == address(0),\n            \"Err: token transfer is BLOCKED\"\n        );\n        if (to == address(0)) {\n            require(\n                _tokenIssuer[tokenId] == msg.sender || from == msg.sender,\n                \"only the issuer of the certificate or the owner can burn the token.\"\n            );\n        }\n        super._beforeTokenTransfer(from, to, tokenId);\n    }\n\n    function revokeCertificate(uint256 tokenId) public {\n        _burn(tokenId);\n        address issuer = _tokenIssuer[tokenId];\n        delete _tokenIssuer[tokenId];\n        for (uint256 i = 0; i < _issuedTokens[issuer].length; i++) {\n            if (_issuedTokens[issuer][i] == tokenId) {\n                _issuedTokens[issuer][i] = _issuedTokens[issuer][\n                    _issuedTokens[issuer].length - 1\n                ];\n            }\n        }\n        _issuedTokens[issuer].pop();\n        for (uint256 i = 0; i < _userInfo[msg.sender].length; i++) {\n            if (_userInfo[msg.sender][i] == tokenId) {\n                _userInfo[msg.sender][i] = _userInfo[msg.sender][\n                    _userInfo[msg.sender].length - 1\n                ];\n                break;\n            }\n        }\n        _userInfo[msg.sender].pop();\n    }\n\n    function getTokenIssuer(uint256 tokenId) public view returns (address) {\n        return _tokenIssuer[tokenId];\n    }\n\n    function getTokensIssuedByAddress(address Issuer)\n        public\n        view\n        returns (uint256[] memory)\n    {\n        return _issuedTokens[Issuer];\n    }\n\n    function getURIsFromAddress(address tokenOwner)\n        public\n        view\n        returns (string[] memory)\n    {\n        string[] memory URIs = new string[](_userInfo[tokenOwner].length);\n        for (uint256 i = 0; i < _userInfo[tokenOwner].length; i++) {\n            URIs[i] = tokenURI(_userInfo[tokenOwner][i]);\n        }\n        return URIs;\n    }\n\n    // The following functions are overrides required by Solidity.\n\n    function _burn(uint256 tokenId)\n        internal\n        override(ERC721, ERC721URIStorage)\n    {\n        super._burn(tokenId);\n    }\n\n    function tokenURI(uint256 tokenId)\n        public\n        view\n        override(ERC721, ERC721URIStorage)\n        returns (string memory)\n    {\n        return super.tokenURI(tokenId);\n    }\n}\n",
  "sourcePath": "/Users/kalski/github/junction_contracts/contracts/SoulBoundToken.sol",
  "compiler": {
    "name": "solc",
    "version": "0.8.17+commit.8df45f5f.Emscripten.clang"
  },
  "schemaVersion": "3.4.10",
  "updatedAt": "2022-11-05T15:59:49.358Z",
  "networkType": "ethereum",
  "devdoc": {
    "kind": "dev",
    "methods": {
      "approve(address,uint256)": {
        "details": "See {IERC721-approve}."
      },
      "balanceOf(address)": {
        "details": "See {IERC721-balanceOf}."
      },
      "getApproved(uint256)": {
        "details": "See {IERC721-getApproved}."
      },
      "isApprovedForAll(address,address)": {
        "details": "See {IERC721-isApprovedForAll}."
      },
      "name()": {
        "details": "See {IERC721Metadata-name}."
      },
      "owner()": {
        "details": "Returns the address of the current owner."
      },
      "ownerOf(uint256)": {
        "details": "See {IERC721-ownerOf}."
      },
      "renounceOwnership()": {
        "details": "Leaves the contract without owner. It will not be possible to call `onlyOwner` functions anymore. Can only be called by the current owner. NOTE: Renouncing ownership will leave the contract without an owner, thereby removing any functionality that is only available to the owner."
      },
      "safeTransferFrom(address,address,uint256)": {
        "details": "See {IERC721-safeTransferFrom}."
      },
      "safeTransferFrom(address,address,uint256,bytes)": {
        "details": "See {IERC721-safeTransferFrom}."
      },
      "setApprovalForAll(address,bool)": {
        "details": "See {IERC721-setApprovalForAll}."
      },
      "supportsInterface(bytes4)": {
        "details": "See {IERC165-supportsInterface}."
      },
      "symbol()": {
        "details": "See {IERC721Metadata-symbol}."
      },
      "transferFrom(address,address,uint256)": {
        "details": "See {IERC721-transferFrom}."
      },
      "transferOwnership(address)": {
        "details": "Transfers ownership of the contract to a new account (`newOwner`). Can only be called by the current owner."
      }
    },
    "version": 1
  },
  "userdoc": {
    "kind": "user",
    "methods": {},
    "version": 1
  }
}